:020000040800F2
:1000000060070020850F0008590500085B050008FF
:100010005F05000863050008670500080000000090
:100020000000000000000000000000006B05000858
:100030006D050008000000006F050008710500084C
:100040009F0F00089F0F00089F0F00089F0F0008D8
:100050009F0F00089F0F00089F0F00089F0F0008C8
:100060009F0F00089F0F00089F0F00089F0F0008B8
:100070009F0F00089F0F00089F0F00089F0F0008A8
:100080009F0F00089F0F00089F0F00089F0F000898
:100090009F0F00089F0F00089F0F00089F0F000888
:1000A0009F0F00089F0F00089F0F00089F0F000878
:1000B0009F0F00089F0F00089F0F00089F0F000868
:1000C0009F0F00089F0F00089F0F00089F0F000858
:1000D0009F0F0008AB0E00089F0F00089F0F00083D
:1000E0009F0F00089F0F00089F0F00089F0F000838
:1000F0009F0F00089F0F00089F0F00089F0F000828
:100100009F0F00089F0F00089F0F00089F0F000817
:100110009F0F00089F0F00089F0F00089F0F000807
:100120009F0F00089F0F00089F0F00089F0F0008F7
:1001300000F002F800F03AF80AA090E8000C8244BF
:100140008344AAF10107DA4501D100F02FF8AFF29C
:10015000090EBAE80F0013F0010F18BFFB1A43F0A5
:1001600001031847AC1A0000CC1A0000103A24BF53
:1001700078C878C1FAD8520724BF30C830C144BF0C
:1001800004680C607047000000230024002500264E
:10019000103A28BF78C1FBD8520728BF30C148BFEA
:1001A0000B6070471FB51FBD10B510BD01F001FDFC
:1001B0001146FFF7F7FF00F038F801F01FFD03B418
:1001C000FFF7F2FF03BC00F015FE000010B5044677
:1001D0002146E04801F020FC00BF4021DD4801F04D
:1001E00089FC0128F9D1322000F0D7FD10BD70B58F
:1001F000044604F14101C8B200F038FD322000F09D
:10020000A8FD00F040FD0546284670BD70B50446C7
:1002100004F14101C8B200F058FD322000F099FD10
:1002200000F060FD0546284670BD00BF002500BFF8
:1002300000BF00BF00F074FD4FF4A06000F0C2FEEC
:100240004FF4E13000F0E5FD00F00CFD00F039FD69
:100250007FE12846FFF7CBFF064641F2883106FBD7
:1002600001F0C11700EB11610C1242F20F7094FB08
:10027000F0F100FB114084B24FF47A7094FBF0F07F
:10028000C7B24FF47A7094FBF0F100FB1140642187
:1002900090FBF1F000F0FF08642094FBF0F100FB0C
:1002A00011400A2190FBF1F000F0FF090A2094FBB5
:1002B000F0F100FB114000F0FF0A4121A54801F0D8
:1002C000ABFB00BF4021A34801F014FC0128F9D189
:1002D0006321A04801F0A0FB00BF40219D4801F030
:1002E00009FC0128F9D168219A4801F095FB00BF6B
:1002F0004021984801F0FEFB0128F9D105F13001B9
:10030000944801F089FB00BF4021924801F0F2FBC4
:100310000128F9D13A218F4801F07EFB00BF40212E
:100320008C4801F0E7FB0128F9D107F13001894839
:1003300001F072FB00BF4021864801F0DBFB012881
:10034000F9D108F13001834801F066FB00BF40217C
:10035000804801F0CFFB0128F9D109F130017D4837
:1003600001F05AFB00BF40217A4801F0C3FB01288D
:10037000F9D10AF13001774801F04EFB00BF40216E
:10038000744801F0B7FB0128F9D12021714801F030
:1003900043FB00BF40216F4801F0ACFB0128F9D1BD
:1003A0002846FFF733FF064641F2883106FB01F08D
:1003B000C11700EB11610C1242F20F7094FBF0F1C7
:1003C00000FB114084B24FF47A7094FBF0F0C7B296
:1003D0004FF47A7094FBF0F100FB1140642190FB24
:1003E000F1F000F0FF08642094FBF0F100FB1140F5
:1003F0000A2190FBF1F000F0FF090A2094FBF0F1D4
:1004000000FB114000F0FF0A4221524801F004FBBA
:1004100000BF40214F4801F06DFB0128F9D1632155
:100420004C4801F0F9FA00BF40214A4801F062FB54
:100430000128F9D16821474801F0EEFA00BF4021B8
:10044000444801F057FB0128F9D105F1300141483A
:1004500001F0E2FA00BF40213E4801F04BFB0128C9
:10046000F9D13A213B4801F0D7FA00BF4021394881
:1004700001F040FB0128F9D107F13001354801F0C6
:10048000CBFA00BF4021334801F034FB0128F9D1F9
:1004900008F130012F4801F0BFFA00BF40212D487C
:1004A00001F028FB0128F9D109F13001294801F0B8
:1004B000B3FA00BF4021274801F01CFB0128F9D105
:1004C0000AF13001234801F0A7FA00BF402121487A
:1004D00001F010FB0128F9D120211E4801F09CFAFF
:1004E00000BF40211B4801F005FB0128F9D10A217A
:1004F000184801F091FA00BF4021164801F0FAFABD
:100500000128F9D12846691CCDB2042815D10A2149
:10051000104801F081FA00BF40210E4801F0EAFACC
:100520000128F9D10A210B4801F076FA00BF4021D9
:10053000084801F0DFFA0128F9D14FF47A7000F091
:100540002CFC2846E91705EB91718910A5EB810178
:10055000CDB27EE600380140704700BFFEE700BF25
:10056000FEE700BFFEE700BFFEE770477047704739
:10057000704700000CB50020019000906C480068A6
:1005800040F480306A49086000BF6948006800F4A0
:10059000003000900198401C0190009818B9019813
:1005A000B0F5A06FF1D16248006800F4003010B1DE
:1005B0000120009001E0002000900098012843D124
:1005C0005C48006840F010005A490860084600681E
:1005D00020F0030008600846006840F00200086050
:1005E0005348406852494860084640684860084699
:1005F000406840F4806048600846406820F47C1001
:1006000048600846406840F4E810486008460068C2
:1006100040F08070086000BF4548006800F000703E
:100620000028F9D04248406820F003004049486063
:100630000846406840F00200486000BF3C484068FF
:1006400000F00C000828F9D10CBD10B5FFF792FF9F
:1006500010BD10B53648006840F00100344908600C
:1006600008464068344908403149486008460068F7
:10067000324908402E4908600846006820F480206E
:1006800008600846406820F4FE0048604FF41F00F0
:100690008860FFF7DAFF4FF000602949086010BD5D
:1006A00010B5002100200022214B5B6803F00C01F3
:1006B00021B1042906D0082928D107E0214B224C7A
:1006C000236027E01F4B204C236023E0184B5B681E
:1006D00003F47010164B5B6803F48032022303EBC3
:1006E000904022B9194B4343174C23600DE0104B47
:1006F0005B6803F4003323B1144B4343124C236073
:1007000003E0104B4343104C236003E00D4B0E4CB1
:10071000236000BF00BF064B5B68C3F303130C4CA0
:10072000E15C094B1B68CB40074C236010BD000007
:1007300000100240002002400000FFF8FFFFF6FE1C
:1007400008ED00E000127A000000002000093D00E2
:100750000400002008B50121082000F0BDFFC020E2
:10076000ADF8000014208DF8030003208DF802007E
:100770006946FE4800F0F4FCC021FC4800F09DFDF5
:1007800008BD08B58020ADF8000014208DF80300E6
:1007900003208DF802006946F44800F0E1FC08BD32
:1007A00008B58020ADF8000001208DF8020004207B
:1007B0008DF803006946ED4800F0D2FC08BD10B585
:1007C000FFF7DFFF8021E94800F077FD4021E7488F
:1007D00000F073FD042000F0BCFA8021E34800F033
:1007E0006EFD042000F0B5FA4021E04800F067FDFE
:1007F00010BD10B5FFF7C5FF4021DC4800F05FFDDC
:100800008021DA4800F05BFD042000F0A2FA4021CC
:10081000D64800F052FD8021D44800F04EFD04205F
:1008200000F097FA10BD10B50024FFF7B9FF802142
:10083000CE4800F042FD012000F08BFA4021CB4869
:1008400000F03BFD012000F084FA07E0601CC4B218
:10085000FA2C03DDFFF7CDFF012010BD8021C34836
:1008600000F011FD0028F1D14021C04800F027FD23
:100870000020F2E710B54021BC4800F020FDFFF752
:1008800080FF8021B94800F01AFD022000F061FAD3
:100890004021B64800F011FD022000F05AFA402134
:1008A000B24800F00CFD10BD10B54021AF4800F07B
:1008B00006FDFFF766FF8021AC4800F0FEFC022039
:1008C00000F047FA4021A94800F0F7FC022000F0B0
:1008D00040FA4021A54800F0F2FC10BD70B5044676
:1008E000FFF74FFF4021A14800F0E9FC00251FE081
:1008F000E00920B180219D4800F0DFFC03E0802169
:100900009A4800F0DCFC6006040E022000F021FA98
:100910004021964800F0D1FC022000F01AFA402154
:10092000924800F0CCFC022000F013FA681CC5B21B
:10093000082DDDDB80218D4800F0BFFC022000F097
:1009400008FA4021894800F0B8FC022000F001FAC2
:100950004021864800F0B3FC022000F0FAF970BD97
:1009600070B505460024FFF71BFF002618E0402164
:100970007E4800F0A4FC022000F0EBF940217B4807
:1009800000F09BFC6006040E8021784800F07BFCA0
:1009900008B1601CC4B2012000F0DBF9701CC6B2C3
:1009A000082EE4DB15B9FFF77FFF01E0FFF762FFD8
:1009B000204670BD08B50121082000F08DFE4FF4DF
:1009C0004060ADF8000014208DF8030003208DF87E
:1009D00002006946654800F0C3FB4FF4406163487C
:1009E00000F06BFC08BD08B54FF40060ADF80000E6
:1009F00014208DF8030003208DF8020069465B483F
:100A000000F0AEFB08BD08B54FF40060ADF8000083
:100A100001208DF8020004208DF803006946534838
:100A200000F09EFB08BD10B5FFF7DDFF4FF400613D
:100A30004E4800F042FC4FF480614C4800F03DFC11
:100A4000042000F086F94FF40061484800F037FCBC
:100A5000042000F07EF94FF48061444800F02FFC40
:100A600010BD10B5FFF7BFFF4FF480613F4800F0A5
:100A700026FC4FF400613D4800F021FC042000F00A
:100A800068F94FF48061394800F017FC4FF40061B9
:100A9000364800F012FC042000F05BF910BD10B5E0
:100AA0000024FFF7B0FF4FF40061304800F005FC70
:100AB000012000F04EF94FF480612C4800F0FDFB5E
:100AC000012000F046F907E0601CC4B2FA2C03DDF7
:100AD000FFF7C7FF012010BD4FF40061234800F06D
:100AE000D2FB0028F0D14FF48061204800F0E7FBF2
:100AF0000020F0E710B54FF480611C4800F0DFFBE8
:100B0000FFF771FF4FF40061184800F0D8FB022096
:100B100000F01FF94FF48061144800F0CEFB022072
:100B200000F017F94FF48061104800F0C8FB10BDC9
:100B300010B54FF480610D4800F0C1FBFFF753FF83
:100B40004FF40061094800F0B8FB022000F001F901
:100B50004FF48061054800F0B0FB022000F0F9F886
:100B60004FF48061014800F0AAFB10BD000C014069
:100B700070B50446FFF737FF4FF48061384800F046
:100B80009EFB002523E0E00928B14FF400613448C2
:100B900000F093FB04E04FF40061314800F08FFB5C
:100BA0006006040E022000F0D4F84FF480612C4857
:100BB00000F083FB022000F0CCF84FF4806128485D
:100BC00000F07DFB022000F0C4F8681CC5B2082DBF
:100BD000D9DB4FF40061224800F06FFB022000F0E7
:100BE000B8F84FF480611E4800F067FB022000F067
:100BF000B0F84FF480611A4800F061FB022000F069
:100C0000A8F870BD70B505460024FFF7FCFE00266D
:100C10001BE04FF48061124800F051FB022000F00D
:100C200098F84FF480610E4800F047FB6006040E10
:100C30004FF400610A4800F026FB08B1601CC4B202
:100C4000012000F086F8701CC6B2082EE1DB15B951
:100C5000FFF76EFF01E0FFF74DFF204670BD00007B
:100C6000000C014010B5FFF775FD10BD10B504462E
:100C7000FFF7A5FD9020FFF731FE2046FFF72EFE7F
:100C8000FFF7B7FD10BD10B5FFF799FD9120FFF7F5
:100C900025FE0020FFF764FE0446FFF7AAFD20466C
:100CA00010BD10B50446FFF78AFD9020FFF716FE31
:100CB0004020FFF713FE2046FFF710FEFFF799FDD7
:100CC00010BD10B5FFF776FE10BD10B50446FFF756
:100CD000AAFE9020FFF74CFF2046FFF749FFFFF7E1
:100CE000C0FE10BD10B5FFF79EFE9120FFF740FF3C
:100CF0000020FFF787FF0446FFF7B3FE204610BD34
:100D000010B50446FFF78FFE9020FFF731FF40201B
:100D1000FFF72EFF2046FFF72BFFFFF7A2FE10BDC7
:100D200010B56FF0040000F09CF92E4800682E49C1
:100D3000B0FBF1F02D4908700846007800EB400147
:100D4000C1EBC0104FF6FF7101EAC00028490880CE
:100D500010BD0146254A12784A434FF0E0235A61FC
:100D600000229A611A46126942F001021A6100BF1C
:100D70004FF0E022106900F001021AB100F4803255
:100D8000002AF5D04FF0E022126922F001024FF064
:100D9000E0231A6100229A6170470146144A1288C2
:100DA0004A434FF0E0235A6100229A611A461269C1
:100DB00042F001021A6100BF4FF0E022106900F01A
:100DC00001021AB100F48032002AF5D04FF0E0227F
:100DD000126922F001024FF0E0231A6100229A61A9
:100DE000704700000000002000127A00140000206C
:100DF00016000020014600BF704700BF5D4A128800
:100E000002F04002002AF9D0C2B25A4B1B1D1A80D0
:100E1000704710B586B00446012144F2040000F08A
:100E20005BFC4FF40070ADF8140003208DF8160041
:100E300018208DF8170005A94F4800F091F94FF4DC
:100E40008060ADF8140004208DF8170005A94A4809
:100E500000F086F925208DF8000003208DF80100B0
:100E60008DF8020001208DF80300684600F0AFF80D
:100E700001940020ADF80800ADF80A00ADF80C00B0
:100E8000ADF810000C20ADF80E0001A9394800F0B3
:100E9000CAFC012240F22551364800F05CFD0121D8
:100EA000344800F04CFD06B010BD10B540F225519D
:100EB000304800F035FE10B32E4800F0B1FDC4B24A
:100EC0002E48008800F40040C8B92C48008800F47F
:100ED000804060B10A2C03D000202849088020E01F
:100EE0002648008840F400402449088019E00D2C71
:100EF00006D12248008840F480402049088010E054
:100F00001E480088C0F30D001D490C541B48008882
:100F1000401C1A49088008460088C72801DD0020C7
:100F2000088010BD10B504462146124800F074FD3B
:100F300000BF40210F4800F0DDFD0128F9D110BDB0
:100F400070B505460E4600240CE0295D094800F006
:100F500063FD00BF4021074800F0CCFD0128F9D116
:100F6000601CC4B2B442F0DB0A21024800F054FD18
:100F700070BD000000380140000801401C00002046
:100F8000340000200948804709480047FEE7FEE793
:100F9000FEE7FEE7FEE7FEE7FEE7FEE7FEE7FEE729
:100FA00004480549054A064B7047000053060008EF
:100FB000310100086001002060070020600300206C
:100FC0006003002031490143314A1160704770B518
:100FD000002100230F22C47804B32D4C246804F4AC
:100FE000E064C4F5E064210AC1F10403CA40447816
:100FF00004FA03F18478144021430901254C067852
:10100000A155047804F01F050124AC4005786D114A
:10101000AD0005F1E025C5F8004109E0047804F0D1
:101020001F050124AC401C4D0678761145F826407A
:1010300070BD1A4A0A400243154B1B1F1A607047C5
:1010400039B1134A121D12680243114B1B1D1A605D
:1010500006E00F4A121D126882430D4B1B1D1A60D9
:101060007047042808D14FF0E021096941F00401DC
:101070004FF0E022116107E04FF0E021096921F013
:1010800004014FF0E0221161704700000000FA05F2
:101090000CED00E000E400E080E100E080FFFF1FD5
:1010A00010B50446CC48844208D10121042000F048
:1010B0002DFB0021042000F029FB46E0C7488442B4
:1010C00008D10121082000F021FB0021082000F0B8
:1010D0001DFB3AE0C248844208D10121102000F0F3
:1010E00015FB0021102000F011FB2EE0BD488442CA
:1010F00008D10121202000F009FB0021202000F070
:1011000005FB22E0B848844208D10121402000F0CC
:10111000FDFA0021402000F0F9FA16E0B3488442BD
:1011200008D10121802000F0F1FA0021802000F098
:10113000EDFA0AE0AE48844207D10121801500F0A3
:10114000E5FA0021A01500F0E1FA10BD10B501216B
:10115000084600F0DBFA0021012000F0D7FA10BDAC
:101160002DE9F0410246002500260020002300243E
:10117000002791F803C00CF00F0591F803C00CF0A4
:10118000100CBCF1000F03D091F802C04CEA050529
:1011900091F800C0BCF1000F31D0146800202BE0A2
:1011A0004FF0010C0CFA00F3B1F800C00CEA030692
:1011B0009E4220D183004FF00F0C0CFA03F7BC4382
:1011C00005FA03FC4CEA040491F803C0BCF1280FB3
:1011D00006D14FF0010C0CFA00FCC2F814C00AE072
:1011E00091F803C0BCF1480F05D14FF0010C0CFA87
:1011F00000FCC2F810C0401C0828D1D31460B1F81C
:1012000000C0BCF1FF0F34DD546800202EE000F177
:10121000080C4FF0010808FA0CF3B1F800C00CEA12
:1012200003069E4221D183004FF00F0C0CFA03F706
:10123000BC4305FA03FC4CEA040491F803C0BCF17A
:10124000280F05D100F1080C08FA0CF8C2F8148038
:1012500091F803C0BCF1480F07D100F1080C4FF022
:10126000010808FA0CF8C2F81080401C0828CED3F8
:101270005460BDE8F0814FF6FF710180022181705A
:101280000421C17070470246002093680B400BB1E7
:10129000012000E0002070470146886880B2704756
:1012A00002460020D3680B400BB1012000E0002073
:1012B00070470146C86880B270470161704741615C
:1012C00070470AB1016100E041617047C160704739
:1012D0004FF480320A43826181618261826982694E
:1012E000704702460020434B18684FF68073184041
:1012F00040EA021008433F4B186070473E49C861FE
:101300007047F0B50A46002300240021002500F0B4
:101310000046B6F1004F02D1364EF16901E0354E7C
:101320007168C0F3034583B200F44016B6F5401F60
:1013300008D121F070612F4E766826F070662D4F2F
:101340007E6012E000F48016B6F5801F06D10326F9
:1013500006FA05F4A14341F0706106E0460D36013E
:1013600003FA06F6B14341F0706122B1460D360131
:1013700003FA06F6314300F00046B6F1004F02D101
:101380001C4EF16101E01B4E7160F0BD30B50022D2
:101390008B071C0F0F2303FA04F2164B08338C1033
:1013A00053F824309343134C08348D1044F82530FF
:1013B00023468C1053F824308C07240F00FA04F4D1
:1013C00023430C4C08348D1044F8253030BD0A49B5
:1013D000DC3108607047000000080140000C01404B
:1013E000001001400014014000180140001C0140A1
:1013F000002001400000014000002042DF4800685A
:1014000040F00100DD49086008464068DC490840BA
:10141000DA49486008460068DA490840D749086058
:101420000846006820F4802008600846406820F4E0
:10143000FE0048604FF41F0088607047CF4909687C
:1014400021F48031CD4A11601146096821F48021D0
:101450001160B0F5803F03D0B0F5802F0ED106E0CB
:10146000C649096841F48031C44A116007E0C349A4
:10147000096841F4A021C14A116000E000BF00BF2B
:10148000704710B501460022002300204A11012AAE
:1014900002D1BA4C236806E0022A02D1B74C236A73
:1014A00001E0B64C636A01F01F02012494401C4025
:1014B0000CB1012000E0002010BD38B500200090E4
:1014C0000024002500BF3120FFF7DBFF0546009810
:1014D000401C00900098B0F5A06F01D0002DF2D014
:1014E0003120FFF7CEFF08B1012400E000242046A0
:1014F00038BD01460020A14A106820F0F80040EAFB
:10150000C10010607047A049086070470246002083
:101510009A4B586820F47C1042EA01031843974B19
:101520005860704798490866704701460020934A02
:10153000506820F003000843506070478F484068AF
:1015400000F00C007047014600208C4A506820F0E3
:10155000F00008435060704701460020874A5068F9
:1015600020F4E06008435060704701460020834A41
:10157000506820F4605040EAC1005060704729B1C3
:101580007E4A527A02437D4B5A7204E07B4A527A79
:1015900082437A4B5A7270477B49D8310860704752
:1015A00001460020754A506820F4404008435060CE
:1015B00070470021714A20321170704A82F8201061
:1015C000012802D004280AD104E001216B4A20320C
:1015D000117005E00521694A2032117000E000BF5A
:1015E00000BF70476949086070476449096A014350
:1015F000624A11627047654944390860704730B5E6
:1016000000210022002400235C4D6D6805F00C01D0
:1016100021B1042905D0082923D105E05C4D0560DE
:1016200022E05B4D05601FE0544D6D6805F47012BB
:10163000524D6D6805F48034022505EB92421CB9C9
:10164000544D554305600BE04C4D6D6805F4003575
:101650001DB1504D5543056002E04D4D55430560A9
:1016600002E04B4D056000BF00BF444D6D6805F0C2
:10167000F0010909484D6B5C0568DD4045603F4D50
:101680006D6805F4E061090A434D6B5C4568DD4017
:1016900085603A4D6D6805F46051C90A3E4D6B5C3A
:1016A0004568DD40C560354D6D6805F44041890BE6
:1016B0003A4D6B5CC568B5FBF3F5056130BD29B1EA
:1016C0002E4A526902432D4B5A6104E02B4A52695B
:1016D00082432A4B5A61704729B1284A92690243D2
:1016E000264B9A6104E0254A92698243234B9A6112
:1016F000704729B1214AD2690243204BDA6104E0E4
:101700001E4AD26982431D4BDA61704729B11B4AD8
:10171000D2680243194BDA6004E0184AD268824367
:10172000164BDA60704729B1144A12690243134B11
:101730001A6104E0114A12698243104B1A61704722
:1017400012494039086070470F49C86470470B4917
:10175000C87170470948406A40F080700749486284
:10176000704701460020054A92680A400AB10120EC
:1017700000E0002070470149887270470010024065
:101780000000FFF8FFFFF6FE0000424280044242E4
:1017900000127A0000093D001E0000202E000020EB
:1017A00010B50446FB48844209D101218803FFF7A4
:1017B000ADFF00214FF48040FFF7A8FF32E0F6486C
:1017C000844209D101214804FFF7ADFF00214FF405
:1017D0000030FFF7A8FF25E0F048844209D101213D
:1017E0008804FFF7A0FF00214FF48020FFF79BFF44
:1017F00018E0EB48844209D10121C804FFF793FFA8
:1018000000214FF40020FFF78EFF0BE0E5488442F3
:1018100008D101210805FFF786FF00214FF4801051
:10182000FFF781FF10BD2DE9F04786B005460E4653
:101830000024A24600BFA1460027B08900B100BF26
:101840002F462C8A4CF6FF700440F08804432C820B
:10185000AC894EF6F3100440B08831890843718991
:1018600008430443AC81AC8A4FF6FF400440B08982
:101870000443AC8201A8FFF7C2FEC648874202D1EA
:10188000DDF810A001E0DDF80CA0A88900F400400C
:1018900040B10AEBCA0000EB0A1031684900B0FB06
:1018A000F1F807E00AEBCA0000EB0A103168890082
:1018B000B0FBF1F86420B8FBF0F0040120096421CA
:1018C00001FB1089A88900F4004040B1322000EBF0
:1018D000C900B0FBF1F000F00700044308E032203B
:1018E00000EB09106421B0FBF1F000F00F0004439D
:1018F0002C8106B0BDE8F0874FF41651016000213D
:101900008180C18001810C2141810021818170474A
:1019100010B502460020108A4FF2FF0318400B88D2
:101920004C8823438C882343CC882343184310825C
:1019300010BD0021018041808180C180704721B1AC
:10194000828942F40052828104E082894DF6FF735D
:101950001A4082817047F0B5034600240026002516
:10196000002040F66A17B94200D100BF1846C1F303
:10197000421401F01F06012707FA06F5012C01D1D8
:101980000C3004E0022C01D1103000E014301AB108
:1019900007682F43076002E00768AF430760F0BDA8
:1019A0001AB1838A0B43838202E0838A8B4383824A
:1019B0007047028A4FF6F0731A400282028A0A4385
:1019C0000282704782894FF2FF731A4082818289B6
:1019D0000A438281704721B1828942F002028281EA
:1019E00004E082894FF6FD731A4082817047028AB3
:1019F0004FF6DF731A400282028A0A43028270475E
:101A000021B1028A42F48042028204E0028A4BF64B
:101A1000FF731A4002827047C1F308028280704748
:101A200001468888C0F308007047818941F00101B0
:101A300081817047028BD2B20283028B42EA01227B
:101A400002837047028B02F47F420283028B0A43B7
:101A50000283704721B1828A42F02002828204E030
:101A6000828A4FF6DF731A408282704721B1828AE0
:101A700042F01002828204E0828A4FF6EF731A402D
:101A80008282704721B1828A42F00802828204E099
:101A9000828A4FF6F7731A408282704721B1828999
:101AA00042F40042828103E08289C2F30E02828105
:101AB000704721B1828A42F40062828204E0828A05
:101AC0004FF2FF731A4082827047828A4FF6FB738F
:101AD0001A408282828A0A438282704721B1828AB6
:101AE00042F00202828204E0828A4FF6FD731A40BD
:101AF0008282704702460020B1F5007F00D100BF0E
:101B000013880B400BB1012000E00020704701F466
:101B10000072B2F5007F00D100BFCA430280704757
:101B200070B50246002400230025002040F66A1606
:101B3000B14200D100BFC1F3421501F01F030126DD
:101B400006FA03F3012D02D19689334006E0022DF7
:101B500002D1168A334001E0968A33400C120126E6
:101B600006FA04F41688344013B10CB1012000E0E9
:101B7000002070BD10B50022002340F66A14A14277
:101B800000D100BF0A1201249440A3B2DC430480B8
:101B900010BD0000003801400044004000480040F3
:101BA000004C00400050004070477047704770473D
:101BB0007047754600F028F8AE4605006946534662
:101BC00020F00700854618B020B5FFF7E9F9BDE819
:101BD00020404FF000064FF000074FF000084FF094
:101BE000000B21F00701AC46ACE8C009ACE8C00925
:101BF000ACE8C009ACE8C0098D4670470446AFF3B5
:101C000000802046FEF7DBFA00487047FC00002009
:101C1000301C000800000020340000006C010008A7
:101C2000641C0008340000202C0700008801000814
:101C300000A24A04000000000000000001020304AA
:101C40000607080900000000000000000000000076
:101C5000000001020304010203040607080902044C
:041C60000608000072
:0400000508000131BD
:00000001FF
