:020000040800F2
:10000000C013002041280008050B0008070B00085A
:100010000B0B00080F0B0008130B0008000000007A
:10002000000000000000000000000000170B0008A6
:10003000190B0008000000001B0B00081D0B000836
:100040005B2800085B2800085B2800085B28000884
:100050005B2800085B2800085B2800085B28000874
:100060005B2800085B2800085B2800085B28000864
:100070005B2800085B2800085B2800085B28000854
:100080005B2800085B2800085B2800085B28000844
:100090005B2800085B2800085B2800085B28000834
:1000A0005B2800085B2800085B2800085B28000824
:1000B0005B280008C10900085B2800085B280008CD
:1000C0005B2800085B2800085B2800085B28000804
:1000D0005B280008432600085B2800085B2800080E
:1000E0005B2800085B2800085B2800085B280008E4
:1000F0005B2800085B2800085B2800085B280008D4
:100100005B2800085B280008570A00085B280008E5
:100110005B2800085B2800085B2800085B280008B3
:100120005B2800085B2800085B2800085B280008A3
:1001300000F002F800F042F80AA090E8000C8244B7
:100140008344AAF10107DA4501D100F037F8AFF294
:10015000090EBAE80F0013F0010F18BFFB1A43F0A5
:1001600001031847A44F0000C44F0000103A24BFF9
:1001700078C878C1FAD8520724BF30C830C144BF0C
:1001800004680C607047000000230024002500264E
:10019000103A28BF78C1FBD8520728BF30C148BFEA
:1001A0000B607047642904F0CF82782904F008833B
:1001B000002070471FB51FBD10B510BD04F0B9FC7D
:1001C0001146FFF7F7FF00F064F904F0D7FC03B421
:1001D000FFF7F2FF03BC02F0D9F90000F8490A6802
:1001E00002604A684260896881607047012080F33C
:1001F000138800BF00BFF348006800F4E060F249D4
:100200000843001DEF490860BFF3408F00BF00BFE7
:10021000FEE710B504460CB900F06CFF012C01D1CB
:1002200000F05FFF10BDE94A1288C2F397120A700E
:10023000E64A12789206120E4A708870E44A1288D2
:10024000120ACA70E24A12780A71704700B58BB080
:10025000DE480068401CDD49086006A8FFF7BEFFC5
:1002600009A94020FFF7DFFF099801909DF82800B9
:100270008DF808000698CDF809000798CDF80D0014
:100280000898CDF81100122101A802F038F90122D6
:10029000122101A802F056FA0BB000BD00B589B0DA
:1002A000CA480068401CC949086007A91020FFF728
:1002B000BAFF04A800F0A5FE079800909DF8200062
:1002C0008DF804000498CDF805000598CDF80900D4
:1002D000BDF81800ADF80D000F21684602F00FF9C7
:1002E00001220F21684602F02DFA09B000BD00B5C9
:1002F00087B0B6480068401CB449086005A93020A2
:10030000FFF791FF059801909DF818008DF80800FF
:10031000B04880788DF80900AE48C0788DF80A00A2
:10032000AC4880788DF80B00AA48C0788DF80C0096
:10033000A9494888C11700EB1161090A8DF80D1011
:10034000A5494888C11700EB11610912A0EB0121F2
:10035000C9B28DF80E10A04909880A2291FBF2F06B
:10036000C11700EB1161090A8DF80F109A4909882D
:1003700091FBF2F0C11700EB11610912A0EB012112
:10038000C9B28DF8101094498888C11700EB11612B
:10039000090A8DF8111090498888C11700EB116186
:1003A0000912A0EB0121C9B28DF81210102101A889
:1003B00002F0A5F80122102101A802F0C3F907B04C
:1003C00000BD10B586B0044680480068401C7F49D7
:1003D000086004A92046FFF726FF03A800F044FEAA
:1003E000049800909DF814008DF804000398CDF84F
:1003F00005000A21684602F082F801220A216846B7
:1004000002F0A0F901207549086006B010BD1CB5C6
:1004100030208DF800008DF801008DF802006C4846
:100420000088000A8DF80300694800788DF8040000
:100430000621684602F063F8684601F0E1F91CBD48
:1004400010B5002066490880664908606649086062
:1004500062490860654908605C4908605C49086059
:1004600063490880634908806349086063490860FC
:100470004FF4A06002F004FA4FF4E13002F095F876
:1004800000F044FE00F072FE00F018FE00F0BFFC29
:1004900010BDBEB000BF00BF00BFFFF7D1FF01F02D
:1004A0002AF941F2883002F0B4F90022072154A061
:1004B00002F048F950E0FFF7C9FE002052490880D9
:1004C000039045E00398401CC0B2039040F6B8305A
:1004D00002F09FF94C48008800F40040002836D014
:1004E00049480088C0F30C05002405E04748005D3A
:1004F0000CA90855601CC4B2AC42F7DB002042498D
:1005000008809DF83200502821D19DF833005028F2
:100510000BD1681E85B2002405E00CA9601C085CA4
:100520000855601CC4B2AC42F7DB06210CA802F0EF
:100530000BF818B900203449088009E09DF8341000
:100540009DF8330001EB00202149086003E000BF63
:1005500003980A28B6DB00BF1D4800680028AAD00F
:1005600000208DF810008DF811008DF81200184849
:100570000088000A8DF81300154800788DF81400E3
:10058000062104A801F0BBFF04A801F039F941F6E7
:100590001F4142F2107001F083FA47214FF6FF70BD
:1005A00001F0ABFA002018490880002404E0002084
:1005B00016490855601CC4B2C82CF8DB8BE100005A
:1005C000E8F7FF1F0CED00E00000FA051400002022
:1005D00018000020400000205600002008000020E5
:1005E000280000200000002004000020100000204F
:1005F0000C0000201C00002020000020240000200F
:1006000041542B454E544D00B8000020DA00002024
:10061000642002F0FEF8FD48008800F40040002845
:100620007DD0FA480088C0F30C05002408E0F848A3
:10063000005D0CA908550020F5490855601CC4B29E
:10064000AC42F4DB0020F149088000BFE9B20CA8FD
:1006500001F07AFF18B90020EC4908803BE19DF8D1
:10066000312002F58070C21700EB12621212A0EB6B
:1006700002239DF8302002F58071CA1701EB126247
:100680001212A1EB022203EB0222E24B1A609DF848
:10069000320006119DF83200C11700EB11710911EB
:1006A000A0EB0111CFB2092E0BD2DFE806F0050B4B
:1006B000141D9B0A0AFDFC009DF832B05846FFF756
:1006C000A8FD05E1FFF7EAFD4FF47A7002F0A1F80A
:1006D000FFF70DFEFCE0069810B1012802D100E002
:1006E00000E000BF00BFF3E027B1012F2FD0022FA1
:1006F00076D153E0C848C088C7498988CDE9001041
:100700009DF836C00CF580794FEAE97C09EB1C6C4A
:100710004FEA2C2CA9EB0C2C0CF0FF0300E0D9E0E5
:100720009DF835C00CF5807A4FEAEA7C0AEB1C6C28
:100730004FEA2C2CAAEB0C2C0CF0FF02DFF8D8C2ED
:100740009CF801109CF8000000F0A2FB48E09DF826
:10075000360000F580794FEAE97009EB106000126D
:10076000A9EB002080B29DF8351001F5807A4FEAA0
:10077000EA710AEB11610912AAEB012189B2DFF8D3
:1007800098C2CDE900109CF803309CF802209CF838
:1007900001109CF8000000F07BFB21E09DF8362062
:1007A00002F58070C21700EB12621212A0EB022356
:1007B0009DF8352002F58071CA1701EB1262121202
:1007C000A1EB022203EB02221FFA82F893498A88E6
:1007D0000888414600F067FB404600F0E7FF00BF95
:1007E00000BF75E09DF8351001F58070C11700EB72
:1007F00011610912A0EB0121C9B28DF82C109DF8EE
:10080000361001F58070C11700EB11610912A0EBE1
:100810000121C9B28DF82D109DF8371001F58070B7
:10082000C11700EB11610912A0EB0121C9B28DF8CB
:100830002E109DF8381001F58070C11700EB116182
:100840000912A0EB0121C9B28DF82F109DF83A20B2
:1008500002F58070C21700EB12621212A0EB0223A5
:100860009DF8392002F58071CA1701EB126212124D
:10087000A1EB022203EB022292B2079222208DF812
:1008800020009DF82C008DF821009DF82D008DF89A
:1008900023009DF82E008DF825009DF82F008DF87F
:1008A00027002E2001E012E00EE08DF826008DF8E2
:1008B00024008DF8220022208DF828000E2108A89F
:1008C000079A00F0DAFF03E05548078000E000BF18
:1008D00000BF00E000BF9BE62DE9F04700F022FBDF
:1008E00000F0E6FA4F480078B0F1FF3F03D048B17E
:1008F000012812D10AE04C48006810B9F320FFF734
:1009000060FD0AE000204849086006E046480068AB
:1009100010B9F220FFF755FD00BF00BF41484078F5
:10092000B0F1FF3F03D048B1012812D10AE03E48A0
:10093000006810B9F120FFF744FD0AE000203A49B1
:10094000086006E03848006810B9F020FFF739FD6C
:1009500000BF00BF33488078B0F1FF3F03D048B1FB
:10096000012812D10AE03048006810B9F520FFF7DD
:1009700028FD0AE000202C49086006E02A480068AB
:1009800010B9F420FFF71DFD00BF00BF00F02AFAE8
:10099000264908800846008804F087FA06464FF08A
:1009A0006632234B04F094FA04460022214B04F0F3
:1009B000F7F8804604F04CFA1F490870BDE8F0874C
:1009C00010B501211D4803F046FCE8B301211B4886
:1009D00003F052FC1A480068401C19490860194885
:1009E0000068401C174908600C4880881449096851
:1009F000884204D1FFF770FF0020114908600748C2
:100A0000008810490968884224D11EE0B8000020FF
:100A1000DA000020100000204000002056000020D6
:100A20000C000020520000200800002028000020B8
:100A300066660A400000B040480000200004004004
:100A4000040000200000002004E0FFF727FC002045
:100A50002649086010BD10B52548007800F08000D8
:100A600000283ED10221234803F0F5FB002838D0AE
:100A70001F48007800F04000E8B11D48007840F0C1
:100A800080001B4908701C48008838B100201A49B2
:100A900008801A480068401C18490860154803F08F
:100AA000BBFB174908800021124803F0BDFA002063
:100AB0000F49087015E000200D49087010490880A2
:100AC00000210C4803F092FB0948007840F04000F8
:100AD000074908700120084908800221054803F0F1
:100AE000A3FA0321034803F0C7FB10BD0000002058
:100AF00060000020000C00401C00002024000020AA
:100B000062000020704700BFFEE700BFFEE700BFA5
:100B1000FEE700BFFEE77047704770477047000070
:100B20000CB50020019000906C48006840F48030C3
:100B30006A49086000BF6948006800F4003000900E
:100B40000198401C0190009818B90198B0F5A06F69
:100B5000F1D16248006800F4003010B1012000902B
:100B600001E0002000900098012843D15C48006813
:100B700040F010005A4908600846006820F0030061
:100B800008600846006840F002000860534840686A
:100B9000524948600846406848600846406840F44A
:100BA000806048600846406820F47C104860084631
:100BB000406840F4E81048600846006840F08070E3
:100BC000086000BF4548006800F000700028F9D0B8
:100BD0004248406820F003004049486008464068A9
:100BE00040F00200486000BF3C48406800F00C0044
:100BF0000828F9D10CBD10B5FFF792FF10BD10B554
:100C00003648006840F001003449086008464068F2
:100C10003449084031494860084600683249084074
:100C20002E4908600846006820F4802008600846C5
:100C3000406820F4FE0048604FF41F008860FFF712
:100C4000DAFF4FF000602949086010BD10B500219F
:100C500000200022214B5B6803F00C0121B1042924
:100C600006D0082928D107E0214B224C236027E039
:100C70001F4B204C236023E0184B5B6803F470107B
:100C8000164B5B6803F48032022303EB904022B9D9
:100C9000194B4343174C23600DE0104B5B6803F482
:100CA000003323B1144B4343124C236003E0104B39
:100CB0004343104C236003E00D4B0E4C236000BFF8
:100CC00000BF064B5B68C3F303130C4CE15C094B9C
:100CD0001B68CB40074C236010BD00000010024091
:100CE000002002400000FFF8FFFFF6FE08ED00E0E4
:100CF00000127A002C00002000093D003000002086
:100D000010B50446072301222146344803F077FB3F
:100D10000121324803F047FB00BF02212F4803F0B6
:100D2000B3FC0028F9D02D4803F0D0FB10BD2DE90D
:100D3000F04107460C460025002605E03846FFF73F
:100D4000DFFF0544701CC6B2A642F7DBB5FBF4F02A
:100D500080B2BDE8F08100B587B001214FF4027088
:100D600002F018F94FF4004002F078F80220ADF8D4
:100D7000040000208DF8070001A9194801F04EFE7B
:100D8000164803F07DFA002002908DF80C008DF8D3
:100D90000D004FF4602004900020059001208DF894
:100DA000180002A90D4803F092FA01210B4803F044
:100DB000BAFA0A4803F0D9FA00BF084803F0DAFA91
:100DC0000028FAD1054803F0DFFA00BF034803F01A
:100DD000E0FA0028FAD107B000BD0000002401406D
:100DE000000C014070B50024002500BF07E0012180
:100DF0000920FFF79CFF204484B2681C85B2052DB2
:100E0000F5DB052094FBF0F084B2204670BD10B5F0
:100E1000FFF7A1FF10BD00000CB50146C8098DF811
:100E20000000C1F380108DF80100C1F340108DF86F
:100E30000200C1F300108DF80300C1F3C0008DF86B
:100E40000400C1F380008DF80500C1F340008DF867
:100E5000060001F001008DF8070068460CBD014650
:100E60000A78D2014B7802EB83128B7802EB4312A3
:100E7000CB7802EB03120B7902EBC3024B7902EB46
:100E800083028B7902EB4302CB791A44D0B27047CC
:100E900070B5DDE90445804E30707170B270F3704A
:100EA000B480F58070BD7D4B188059809A80704762
:100EB0007B48007878490978884203DAFF2079492D
:100EC000087008E07648007873494978884202DD66
:100ED000012074490870724840786F4989788842C7
:100EE00003DAFF206F49487008E06D4840786A498E
:100EF000C978884202DD01206A4948706848C08884
:100F000065498988884203DAFF206649887008E0CD
:100F10006348C0886049C988884202DD0120614970
:100F20008870704770B5032000F050F95E49087072
:100F30005B498870022000F049F95C490870584903
:100F4000C870012000F042F95949087054490871ED
:100F5000002000F03BF95749087051494871524C44
:100F60002378DC1703EB9474A410504D2A78D5171E
:100F700002EB957504EBA5044D4D2978CD1701EBD7
:100F8000957504EBA5044B4D2878C51700EB9575B6
:100F900004EBA504424D6C70002000F026F92946B0
:100FA000C880454800684FF47A7148434FF4E171B6
:100FB000B0FBF1F02946088170BD70B504460D46BE
:100FC000002000F003F92070012000F0FFF86070AD
:100FD000022000F0FBF8A070032000F0F7F8E070AA
:100FE000002000F002F92870012000F0FEF868707F
:100FF000022000F0FAF8A870032000F0F6F8E8707C
:1010000070BD2749097801702549897841702449C4
:10101000C978817022490979C170214949790171E2
:101020001F4AD188CA1701EB1262120A42711C4A88
:10103000D188CA1701EB12621212A1EB022282714F
:10104000174A1189CA1701EB1262120AC271144AB7
:101050001189CA1701EB12621212A1EB022202726D
:101060000021154A116070470D49097801700C493B
:10107000497841700A4AD188CA1701EB1262120AF4
:10108000C270074AD188CA1701EB12621212A1EB93
:10109000022202717047000040000020560000202C
:1010A00048000020520000205C0000205D0000206D
:1010B0005E0000205F0000202400002008B5012110
:1010C000082001F067FF2020ADF8000010208DF807
:1010D000030003208DF8020069460B4801F09EFCD6
:1010E00008BD10B52021084801F045FD322001F06F
:1010F00090FB10BD10B52021034801F03EFD3220C9
:1011000001F087FB10BD0000000C014010B500F09D
:101110007BF810BD10B5044600F0E4F8902000F014
:1011200013FA204600F010FA00F014F910BD10B5C3
:1011300000F0D8F8912000F007FA002000F068FADB
:10114000044600F007F96006000E10BD10B5044615
:1011500000F0C8F8902000F0F7F9402000F0F4F912
:10116000204600F0F1F900F0F5F810BD10B500F0E0
:1011700062F810BD10B5044600F0CEF8902000F0E3
:1011800010FA204600F00DFA00F0FEF810BD10B580
:1011900000F0C2F8912000F004FA002000F062FA9A
:1011A000044600F0F1F86006000E10BD10B50446CC
:1011B00000F0B2F8902000F0F4F9402000F0F1F9CE
:1011C000204600F0EEF900F0DFF810BD70B50446DF
:1011D00004F14101C8B2FFF79DFF322001F00AFB84
:1011E000FFF7A5FF0546284670BD70B5044604F11B
:1011F0004101C8B2FFF7BEFF322001F0FBFAFFF752
:10120000C6FF0546284670BD08B50121082001F03B
:10121000C1FEC020ADF8000010208DF803000320AF
:101220008DF802006946F84801F0F8FBC021F64845
:1012300001F0A1FC08BD08B50121082001F0AAFEBB
:101240004FF44060ADF8000010208DF8030003203B
:101250008DF802006946ED4801F0E0FB4FF4406173
:10126000E94801F088FC08BD08B58020ADF8000011
:1012700010208DF8030003208DF802006946E24833
:1012800001F0CCFB08BD08B54FF40060ADF80000DC
:1012900010208DF8030003208DF802006946DA481B
:1012A00001F0BCFB08BD08B58020ADF800000120AE
:1012B0008DF8020004208DF803006946D24801F041
:1012C000ADFB08BD08B54FF40060ADF8000001208B
:1012D0008DF8020004208DF803006946CA4801F029
:1012E0009DFB08BD10B5FFF7BFFF8021C64801F088
:1012F00042FC4021C44801F03EFC042001F07AFA8F
:101300008021C14801F039FC042001F073FA40212A
:10131000BD4801F032FC10BD10B5FFF7B4FF4FF42B
:101320000061B94801F027FC4FF48061B64801F034
:1013300022FC042001F05EFA4FF40061B24801F093
:101340001CFC042001F056FA4FF48061AE4801F015
:1013500014FC10BD10B5FFF787FF4021AA4801F02B
:101360000CFC8021A84801F008FC042001F042FA9E
:101370004021A54801F0FFFB8021A34801F0FBFBC1
:10138000042001F037FA10BD10B5FFF77CFF4FF4D1
:1013900080619D4801F0F1FB4FF400619A4801F033
:1013A000ECFB042001F026FA4FF48061964801F02E
:1013B000E2FB4FF40061944801F0DDFB042001F0F2
:1013C00019FA10BD10B50024FFF76DFF80218E487B
:1013D00001F0D1FB012001F00DFA40218A4801F013
:1013E000CAFB012001F006FA07E0601CC4B2FA2C27
:1013F00003DDFFF7AFFF012010BD8021824801F01F
:10140000A0FB0028F1D140217F4801F0B6FB00206D
:10141000F2E710B50024FFF755FF4FF400617A485A
:1014200001F0A9FB012001F0E5F94FF48061764855
:1014300001F0A1FB012001F0DDF907E0601CC4B25E
:10144000FA2C03DDFFF7A0FF012010BD4FF400616F
:101450006D4801F076FB0028F0D14FF480616A48B6
:1014600001F08BFB0020F0E710B54021664801F049
:1014700084FBFFF7F9FE8021634801F07EFB022028
:1014800001F0B8F94021604801F075FB022001F03D
:10149000B1F940215C4801F070FB10BD10B54FF46C
:1014A0008061594801F069FBFFF7EDFE4FF40061E0
:1014B000554801F062FB022001F09CF94FF4806175
:1014C000514801F058FB022001F094F94FF480617B
:1014D0004D4801F052FB10BD10B540214A4801F0C3
:1014E0004CFBFFF7C1FE8021474801F044FB02207E
:1014F00001F080F94021444801F03DFB022001F059
:1015000079F94021404801F038FB10BD10B54FF487
:1015100080613D4801F031FBFFF7B5FE4FF40061FB
:10152000394801F028FB022001F064F94FF4806192
:10153000354801F020FB022001F05CF94FF4806196
:10154000314801F01AFB10BD70B50446FFF78CFE60
:1015500040212D4801F011FB00251FE0E00920B1DA
:101560008021294801F007FB03E08021264801F093
:1015700004FB6006040E022001F03CF940212248E1
:1015800001F0F9FA022001F035F940211E4801F07E
:10159000F4FA022001F02EF9681CC5B2082DDDDB3B
:1015A00070BD70B50446FFF76EFE4FF480611648BB
:1015B00001F0E3FA002523E0E00928B14FF40061CF
:1015C000114801F0D8FA04E04FF400610E4801F030
:1015D000D4FA6006040E022001F00CF94FF4806189
:1015E000094801F0C8FA022001F004F94FF48061C3
:1015F000054801F0C2FA022001F0FCF8681CC5B2EF
:10160000082DD9DB70BD0000000C01400010014026
:1016100070B505460024FFF746FE002618E040217D
:10162000274801F0AAFA022001F0E4F840212448FA
:1016300001F0A1FA6006040E8021214801F081FA30
:1016400008B1601CC4B2012001F0D4F8701CC6B20D
:10165000082EE4DB15B9FFF73FFF01E0FFF704FFB9
:10166000204670BD70B505460024FFF72BFE00260E
:101670001BE04FF48061124801F07FFA022001F074
:10168000B9F84FF480610E4801F075FA6006040E57
:101690004FF400610A4801F054FA08B1601CC4B26A
:1016A000012001F0A7F8701CC6B2082EE1DB15B9C5
:1016B000FFF72CFF01E0FFF7F1FE204670BD0000B0
:1016C000000C014010B52B2001F02BF82B2001F06D
:1016D00028F82B2001F025F84FF4FA7001F099F862
:1016E000612001F01EF810BD10B50022072195A061
:1016F00001F028F810BD10B5FFF7F6FF4FF4FA70AF
:1017000001F087F8FFF7DEFF4FF4FA7001F081F87F
:10171000002220218DA001F015F84FF4FA7001F09D
:1017200078F800220E2192A001F00CF84FF4FA7024
:1017300001F06FF800221F2191A001F003F84FF48F
:10174000FA7001F066F800220D2195A000F0FAFF72
:101750004FF4FA7001F05DF80022202194A000F00F
:10176000F1FF4FF4FA7001F054F80022112199A012
:1017700000F0E8FF4FF4FA7001F04BF800220D2161
:1017800099A000F0DFFF4FF4FA7001F042F8002258
:101790000F2199A000F0D6FF4FF4FA7001F039F84C
:1017A0000022042198A000F0CDFF10BD70B588B0D4
:1017B000044697A60A2C01DA012506E00A2C03DB71
:1017C000642C01DA022500E00325224695A101A838
:1017D00002F07EFF1022314603A803F0B9F82A4632
:1017E00001A907A803F0F9F805F1100081B2002261
:1017F00003A800F0A7FF642001F00BF808B070BD4B
:1018000070B58AB0054688A610223146684603F0B6
:101810009FF822208DF8100000240DE02A5D87A19A
:1018200009A802F055FF0DF1110000EB4400BDF8CE
:1018300024100180601C84B2062CEFDB66208DF83A
:101840001D0065208DF81E0030208DF81F006120DE
:101850008DF8200065208DF8210066208DF822008B
:1018600022208DF8230000222421684600F06AFF20
:10187000642000F0CEFF0AB070BD2DE9F0438FB0B8
:1018800006460C4617460FF2BC180FF2D01942F26A
:101890001070874201DB052500E004251422414633
:1018A00002A803F055F8A21C314607A803F050F82F
:1018B0002C2104F1160002AA11543A4659A1684697
:1018C00002F006FF07A92144C81C2A46694603F016
:1018D0003FF804F11700284481B2002202A800F06A
:1018E00031FF4FF47A7000F094FF00221621484631
:1018F00000F028FF642000F08CFF0FB0BDE8F083FB
:1019000010B55CA400220921204600F01BFF6420D2
:1019100000F07FFF10BD10B559A40022132120460E
:1019200000F010FF642000F074FF10BD10B559A442
:1019300000220921204600F005FF642000F069FF25
:1019400010BD000041542B454E544D0041542B55C1
:101950004152543D3131353230302C224E4F4E45BC
:10196000222C382C312C224E4F4E452200000000F4
:1019700041542B41504E3D22636D6E657422000030
:1019800041542B484541525444543D22303030306C
:1019900030303030303046464645304145462200F2
:1019A00041542B4845415254544D3D3939000000B3
:1019B00041542B534F434B413D22544350222C2240
:1019C0007468756462622E636F6D222C3233313716
:1019D0000000000041542B534F434B41534C3D22D8
:1019E0006C6F6E672200000041542B554154454EE8
:1019F0003D226F6E2200000041542B434D4450574E
:101A00003D2269726774220041542B53000000008C
:101A1000697267742341542B4845415254544D3DDB
:101A20000000000025640000697267742341542B94
:101A3000484541525444543D00000000253032587E
:101A400000000000697267742341542B534F434BCD
:101A5000413D22544350222C0000000069726774FB
:101A60002341542B534F434B41534C3D226C6F6EDB
:101A700067220000697267742341542B5A000000EA
:101A8000697267742341542B41504E3D22636D6E41
:101A900065742200697267742341542B530000005F
:101AA0007FB505460C460121022001F080FAADF811
:101AB0000850ADF804400020ADF80A00ADF806006B
:101AC00001A9344801F0A2FD01221146314802F07B
:101AD00014F91D208DF8000000208DF8010003206E
:101AE0008DF8020001208DF80300684600F0CDFE5D
:101AF0000121284802F0E6F87FBD30B585B00546E3
:101B00000C460121082001F052FA0121042001F0C5
:101B100041FA0120ADF8100028208DF8130004A927
:101B20001D4800F07BFF01211B4801F026F8ADF8AD
:101B30000850ADF804400020ADF80A00ADF80600EA
:101B400001A9164801F062FD00201549088048806F
:101B5000012088800020C8800881104801F0E9FF3A
:101B600032208DF8000002208DF8010000208DF851
:101B7000020001208DF80300684600F086FE012275
:101B80000321064802F0B9F80121044802F09AF84E
:101B900005B030BD0004004000080140000C0040CA
:101BA000D0000020002101604160FE498160FE4AB2
:101BB000C260CA430261FC4AD2434261704770B5B9
:101BC00003460024002010E00E5C451C4D5D46EAF3
:101BD0000526851C4D5D46EA0546C51C4D5D46EA59
:101BE000056543F82450641C001D9042ECD370BD81
:101BF0002DE9F043C0B080468946D8F80040D8F8B7
:101C00000450D8F80860D8F80C704022494668465D
:101C1000FFF7D5FF05EA060027EA0501084300990A
:101C20000844E24908440444E00140EA54642C4476
:101C300004EA050026EA0401084301990844DC4946
:101C400008440744380340EA1757274407EA0400CA
:101C500025EA0701084302990844D6490844064486
:101C6000700440EAD6363E4406EA070024EA06013C
:101C7000084303990844D04908440544A80540EAAC
:101C80009525354405EA060027EA0501084304992D
:101C90000844CA4908440444E00140EA54642C441E
:101CA00004EA050026EA0401084305990844C449EA
:101CB00008440744380340EA1757274407EA04005A
:101CC00025EA0701084306990844BE49084406442A
:101CD000700440EAD6363E4406EA070024EA0601CC
:101CE000084307990844B84908440544A80540EA50
:101CF0009525354405EA060027EA050108430899B9
:101D00000844B24908440444E00140EA54642C44C5
:101D100004EA050026EA0401084309990844AC498D
:101D200008440744380340EA1757274407EA0400E9
:101D300025EA070108430A990844A0F524404F38D2
:101D40000644700440EAD6363E4406EA070024EA18
:101D5000060108430B9908449E4908440544A80518
:101D600040EA9525354405EA060027EA05010843BF
:101D70000C990844984908440444E00140EA54643A
:101D80002C4404EA050026EA040108430D9908449E
:101D9000924908440744380340EA1757274407EAA2
:101DA000040025EA070108430E9908448C490844B9
:101DB0000644700440EAD6363E4406EA070024EAA8
:101DC000060108430F990844864908440544A805BC
:101DD00040EA9525354405EA070026EA070108434D
:101DE00001990844804908440444600140EAD464ED
:101DF0002C4404EA060025EA060108430699084433
:101E00007A4908440744780240EAD757274407EA4A
:101E1000050024EA050108430B9908447449084465
:101E20000644B00340EA96463E4406EA040027EA28
:101E300004010843009908446E49084405442805F4
:101E400040EA1535354405EA070026EA070108434C
:101E500005990844684908440444600140EAD46490
:101E60002C4404EA060025EA060108430A990844BE
:101E7000624908440744780240EAD757274407EAF2
:101E8000050024EA050108430F9908445C49084409
:101E90000644B00340EA96463E4406EA040027EAB8
:101EA0000401084304990844564908440544280598
:101EB00040EA1535354405EA070026EA07010843DC
:101EC00009990844504908440444600140EAD46434
:101ED0002C4404EA060025EA060108430E9908444A
:101EE0004A4908440744780240EAD757274407EA9A
:101EF000050024EA050108430399084444490844BD
:101F00000644B00340EA96463E4406EA040027EA47
:101F100004010843089908443E490844054428053B
:101F200040EA1535354405EA070026EA070108436B
:101F30000D990844384908440444600140EAD464D7
:101F40002C4404EA060025EA0601084302990844E5
:101F5000324908440744780240EAD757274407EA41
:101F6000050024EA05010843079908442C49084460
:101F70000644B00340EA96463E4406EA040027EAD7
:101F8000040108430C9908442649084405442805DF
:101F900040EA1535354485EA06007840059908443D
:101FA000214943E00123456789ABCDEF78A46AD787
:101FB00056B7C7E8DB702024EECEBDC1AF0F7CF56D
:101FC0002AC68747134630A8019546FDD8988069F0
:101FD000AFF7448BBED75C892211906B937198FD4B
:101FE0008E4379A62108B44962251EF640B340C04D
:101FF000515A5E26AAC7B6E95D102FD65314440283
:1020000081E6A1D8C8FBD3E7E6CDE121D60737C3E7
:10201000870DD5F4ED145A4505E9E3A9F8A3EFFCC3
:10202000D9026F678A4C2A8D4239FAFF084404446A
:10203000200140EA14742C4484EA05007040089999
:102040000844FC4908440744F80240EA575727442B
:1020500087EA040068400B990844F749084406449D
:10206000300440EA16463E4486EA070060400E9976
:102070000844F24908440544E80540EA552535443A
:1020800085EA0600784001990844ED490844044473
:10209000200140EA14742C4484EA0500704004993D
:1020A0000844E84908440744F80240EA57572744DF
:1020B00087EA0400684007990844E3490844064455
:1020C000300440EA16463E4486EA070060400A991A
:1020D0000844DE4908440544E80540EA55253544EE
:1020E00085EA060078400D990844D949084404441B
:1020F000200140EA14742C4484EA050070400099E1
:102100000844D44908440744F80240EA5757274492
:1021100087EA0400684003990844CF49084406440C
:10212000300440EA16463E4486EA070060400699BD
:102130000844CA4908440544E80540EA55253544A1
:1021400085EA0600784009990844C54908440444D2
:10215000200140EA14742C4484EA050070400C9974
:102160000844C04908440744F80240EA5757274446
:1021700087EA040068400F990844BB4908440644B4
:10218000300440EA16463E4486EA07006040029961
:102190000844B64908440544E80540EA5525354455
:1021A00065EA0700704000990844B14908440444B6
:1021B000A00140EA94642C4464EA06006840079950
:1021C0000844AC4908440744B80240EA97572744FA
:1021D00067EA050060400E990844A7490844064490
:1021E000F00340EA56463E4466EA0400784005990A
:1021F0000844A24908440544680540EAD525354409
:1022000065EA070070400C9908449D49084404445D
:10221000A00140EA94642C4464EA060068400399F3
:102220000844984908440744B80240EA97572744AD
:1022300067EA050060400A99084493490844064447
:10224000F00340EA56463E4466EA040078400199AD
:1022500008448E4908440544680540EAD5253544BC
:1022600065EA070070400899084489490844044415
:10227000A00140EA94642C4464EA060068400F9987
:102280000844844908440744B80240EA9757274461
:1022900067EA05006040069908447F4908440644FF
:1022A000F00340EA56463E4466EA040078400D9941
:1022B00008447A4908440544680540EAD525354470
:1022C00065EA0700704004990844754908440444CD
:1022D000A00140EA94642C4464EA060068400B992B
:1022E0000844704908440744B80240EA9757274415
:1022F00067EA05006040029908446B4908440644B7
:10230000F00340EA56463E4466EA040078400999E4
:102310000844664908440544680540EAD525354423
:10232000D8F800002044C8F80000D8F80400284479
:10233000C8F80400D8F808003044C8F80800D8F8F5
:102340000C003844C8F80C0040B0BDE8F0832DE91B
:10235000F04704460F4615460026B046B146208891
:10236000C0F3C508C8F14009206800EBC500206033
:102370002068B0EBC50F02D26068401C60606068E6
:1023800000EB557060604D451CD304F1180101EB62
:1023900008004A46394602F0DBFA04F1180104F15C
:1023A0000800FFF725FC4E4605E0B91904F10800C6
:1023B000FFF71EFC403606F14000A842F5D94FF069
:1023C000000800E00026AA1BB91904F1180303EB6A
:1023D000080002F0BDFABDE8F08770B50346144668
:1023E0000022002015E011F822501D5431F822502F
:1023F000C5F30726451C5E5551F82250C5F3074624
:10240000851C5E5551F822502D0EC61C9D55521C40
:10241000001DA042E7D370BD2DE9FC4104460E46E5
:10242000002500272088C0F3C505382D40D2C5F10E
:1024300038003FE081F6718722619D6D0C38E5FD23
:1024400044EABEA4A9CFDE4B604BBBF670BCBFBE56
:10245000C67E9B28FA27A1EA8530EFD4051D8804A3
:1024600039D0D4D9E599DBE6F87CA21F6556ACC417
:10247000442229F497FF2A43A72394AB39A093FC65
:10248000C3595B6592CC0C8F7DF4EFFFD15D8485E1
:102490004F7EA86FE0E62CFE144301A3A111084E65
:1024A000827E53F735F23ABDBBD2D72A91D386EB61
:1024B000C5F178000746082221466846FFF78DFFE0
:1024C0003A4608492046FFF742FF0822694620465F
:1024D000FFF73DFF102204F108013046FFF77DFFB2
:1024E000BDE8FC816400002010B50346002003E035
:1024F0000C5C1C54441CE0B29042F9DB10BD30B5BA
:10250000ABB005460C46601EC2B2294617A8FFF7BD
:10251000EBFF17A92144481E10221B49FFF7E4FFD7
:1025200001A8FFF73FFB04F10F0217A901A8FFF76D
:102530000EFF27A901A8FFF76FFF9DF89E0029193C
:1025400001F8010C2BB030BD30B591B005460C46FA
:10255000601EC2B2294601A8FFF7C6FF01A92144A7
:10256000481E10220849FFF7BFFF214601A8FFF7C8
:10257000C6FF601E01A9095C285C814202D10120CE
:1025800011B030BD0020FBE7A4000020014600BFD1
:10259000704700BF8C4A128802F04002002AF9D02E
:1025A000C2B2894B1B1D1A80704710B586B0044615
:1025B000012144F2040000F0EDFC4FF40070ADF88E
:1025C000140003208DF8160018208DF8170005A9B7
:1025D0007E4800F023FA4FF48060ADF81400042028
:1025E0008DF8170005A9794800F018FA25208DF814
:1025F000000003208DF801008DF8020001208DF805
:102600000300684600F041F901940020ADF808008D
:10261000ADF80A00ADF80C00ADF810000C20ADF8D4
:102620000E0001A9684800F05CFD012240F225512E
:10263000654800F0EEFD0121634800F0DEFD06B0C4
:1026400010BD10B540F225515F4800F0C7FE0028CC
:1026500065D05D4800F042FEC4B25D480188008844
:10266000401C5B4A10805B4844545B48008800F47F
:10267000604048B1B0F5804F19D0B0F5C04F28D0B8
:10268000B0F5004F3FD13DE053480088C0F30C0047
:10269000C72803DD00205049088010BDFE2C05D15D
:1026A0004D48008840F480404B4908802BE00A2CBC
:1026B00006D14948008840F400504749088007E0A7
:1026C000FE2C05D044480088C0F30C004249088025
:1026D00019E0EF2C0FD140480088801E3E49088049
:1026E00008460088C0F30C0008800846008840F4C3
:1026F00000400880D1E738480088C0F30C00364914
:10270000088000E0C9E700BF33480088C0F30C0030
:1027100032490C5430480088401C2F49088000BFC3
:10272000BBE710B504462146274800F0D3FD00BFA3
:102730004021254800F03CFE0128F9D11E2000F080
:1027400059F810BD2DE9F04106460F461446002504
:1027500000BF0FE0715D1C4800F0BCFD00BF4021D0
:10276000194800F025FE0128F9D11E2000F042F89A
:10277000681C85B2BD42EDDB3CB90D20FFF7D1FFEF
:102780000A20FFF7CEFFBDE8F081012C09D1FE2021
:10279000FFF7C7FF0A20FFF7C4FFEF20FFF7C1FFD5
:1027A000F1E700BFEFE700B585B014220CA1684641
:1027B00002F013F9012211216846FFF7C3FF002040
:1027C0000549088005B000BD0038014000080140FF
:1027D000BA000020A2010020B8000020DA0000208A
:1027E00053797374656D2053746172742E2E2E0AA2
:1027F00000000000002106E00A2100BF0A00A1F14C
:10280000010399B2FAD10200A0F1010398B2F3D109
:102810007047002107E042F6E06100BF0A00A1F125
:10282000010399B2FAD10200A0F1010398B2F2D1EA
:10283000704700BF0100A0F1010290B2FAD17047C9
:102840000948804709480047FEE7FEE7FEE7FEE744
:10285000FEE7FEE7FEE7FEE7FEE7FEE70448054980
:10286000054A064B70470000FF0B000831010008C5
:10287000C00D0020C0130020C00F0020C00F00209A
:1028800031490143314A1160704770B5002100237E
:102890000F22C47804B32D4C246804F4E064C4F51A
:1028A000E064210AC1F10403CA40447804FA03F148
:1028B0008478144021430901254C0678A1550478F9
:1028C00004F01F050124AC4005786D11AD0005F141
:1028D000E025C5F8004109E0047804F01F05012453
:1028E000AC401C4D0678761145F8264070BD1A4A5A
:1028F0000A400243154B1B1F1A60704739B1134A37
:10290000121D12680243114B1B1D1A6006E00F4A8C
:10291000121D126882430D4B1B1D1A60704704285C
:1029200008D14FF0E021096941F004014FF0E022A5
:10293000116107E04FF0E021096921F004014FF037
:10294000E0221161704700000000FA050CED00E084
:1029500000E400E080E100E080FFFF1F10B50446C6
:10296000CC48844208D10121042000F02DFB002135
:10297000042000F029FB46E0C748844208D1012129
:10298000082000F021FB0021082000F01DFB3AE0A8
:10299000C248844208D10121102000F015FB00211B
:1029A000102000F011FB2EE0BD48844208D1012127
:1029B000202000F009FB0021202000F005FB22E090
:1029C000B848844208D10121402000F0FDFA0021DE
:1029D000402000F0F9FA16E0B348844208D1012102
:1029E000802000F0F1FA0021802000F0EDFA0AE0EA
:1029F000AE48844207D10121801500F0E5FA00219C
:102A0000A01500F0E1FA10BD10B50121084600F054
:102A1000DBFA0021012000F0D7FA10BD2DE9F041CA
:102A2000024600250026002000230024002791F8FC
:102A300003C00CF00F0591F803C00CF0100CBCF1B2
:102A4000000F03D091F802C04CEA050591F800C0D0
:102A5000BCF1000F31D0146800202BE04FF0010CC6
:102A60000CFA00F3B1F800C00CEA03069E4220D134
:102A700083004FF00F0C0CFA03F7BC4305FA03FC7C
:102A80004CEA040491F803C0BCF1280F06D14FF0C2
:102A9000010C0CFA00FCC2F814C00AE091F803C063
:102AA000BCF1480F05D14FF0010C0CFA00FCC2F844
:102AB00010C0401C0828D1D31460B1F800C0BCF18C
:102AC000FF0F34DD546800202EE000F1080C4FF0B9
:102AD000010808FA0CF3B1F800C00CEA03069E42A4
:102AE00021D183004FF00F0C0CFA03F7BC4305FA19
:102AF00003FC4CEA040491F803C0BCF1280F05D193
:102B000000F1080C08FA0CF8C2F8148091F803C020
:102B1000BCF1480F07D100F1080C4FF0010808FA8A
:102B20000CF8C2F81080401C0828CED35460BDE8D1
:102B3000F0814FF6FF710180022181700421C17084
:102B400070470246002093680B400BB1012000E063
:102B5000002070470146886880B270470246002016
:102B6000D3680B400BB1012000E000207047014604
:102B7000C86880B2704701617047416170470AB10F
:102B8000016100E041617047C16070474FF48032DD
:102B90000A4382618161826182698269704702466B
:102BA0000020434B18684FF68073184040EA02102B
:102BB00008433F4B186070473E49C8617047F0B505
:102BC0000A46002300240021002500F00046B6F14B
:102BD000004F02D1364EF16901E0354E7168C0F305
:102BE000034583B200F44016B6F5401F08D121F02A
:102BF00070612F4E766826F070662D4F7E6012E071
:102C000000F48016B6F5801F06D1032606FA05F4F7
:102C1000A14341F0706106E0460D360103FA06F665
:102C2000B14341F0706122B1460D360103FA06F658
:102C3000314300F00046B6F1004F02D11C4EF16165
:102C400001E01B4E7160F0BD30B500228B071C0FF8
:102C50000F2303FA04F2164B08338C1053F8243078
:102C60009343134C08348D1044F8253023468C10C0
:102C700053F824308C07240F00FA04F423430C4C3F
:102C800008348D1044F8253030BD0A49DC31086025
:102C90007047000000080140000C01400010014096
:102CA0000014014000180140001C014000200140B8
:102CB0000000014000002042DF48006840F00100B1
:102CC000DD49086008464068DC490840DA49486048
:102CD00008460068DA490840D74908600846006895
:102CE00020F4802008600846406820F4FE00486018
:102CF0004FF41F0088607047CF49096821F4803184
:102D0000CD4A11601146096821F480211160B0F5A7
:102D1000803F03D0B0F5802F0ED106E0C649096888
:102D200041F48031C44A116007E0C349096841F4A5
:102D3000A021C14A116000E000BF00BF704710B57C
:102D400001460022002300204A11012A02D1BA4C78
:102D5000236806E0022A02D1B74C236A01E0B64C90
:102D6000636A01F01F02012494401C400CB1012051
:102D700000E0002010BD38B50020009000240025A0
:102D800000BF3120FFF7DBFF05460098401C009094
:102D90000098B0F5A06F01D0002DF2D03120FFF7E0
:102DA000CEFF08B1012400E00024204638BD0146D2
:102DB0000020A14A106820F0F80040EAC10010602D
:102DC0007047A04908607047024600209A4B586837
:102DD00020F47C1042EA01031843974B5860704777
:102DE00098490866704701460020934A506820F0D1
:102DF00003000843506070478F48406800F00C00A3
:102E00007047014600208C4A506820F0F0000843CB
:102E10005060704701460020874A506820F4E06007
:102E200008435060704701460020834A506820F4F0
:102E3000605040EAC1005060704729B17E4A527A22
:102E400002437D4B5A7204E07B4A527A82437A4BAA
:102E50005A7270477B49D83108607047014600209C
:102E6000754A506820F44040084350607047002184
:102E7000714A20321170704A82F82010012802D065
:102E800004280AD104E001216B4A2032117005E0C8
:102E90000521694A2032117000E000BF00BF704771
:102EA0006949086070476449096A0143624A1162CE
:102EB0007047654944390860704730B500210022E9
:102EC000002400235C4D6D6805F00C0121B104293C
:102ED00005D0082923D105E05C4D056022E05B4D5B
:102EE00005601FE0544D6D6805F47012524D6D6819
:102EF00005F48034022505EB92421CB9544D55432C
:102F000005600BE04C4D6D6805F400351DB1504D6A
:102F10005543056002E04D4D5543056002E04B4DC1
:102F2000056000BF00BF444D6D6805F0F001090960
:102F3000484D6B5C0568DD4045603F4D6D6805F4AC
:102F4000E061090A434D6B5C4568DD4085603A4DA0
:102F50006D6805F46051C90A3E4D6B5C4568DD4003
:102F6000C560354D6D6805F44041890B3A4D6B5C89
:102F7000C568B5FBF3F5056130BD29B12E4A52692C
:102F800002432D4B5A6104E02B4A526982432A4B7B
:102F90005A61704729B1284A92690243264B9A61C7
:102FA00004E0254A92698243234B9A61704729B114
:102FB000214AD2690243204BDA6104E01E4AD269F9
:102FC00082431D4BDA61704729B11B4AD268024324
:102FD000194BDA6004E0184AD2688243164BDA6073
:102FE000704729B1144A12690243134B1A6104E075
:102FF000114A12698243104B1A61704712494039D5
:10300000086070470F49C86470470B49C871704722
:103010000948406A40F0807007494862704701469D
:103020000020054A92680A400AB1012000E0002011
:103030007047014988727047001002400000FFF895
:10304000FFFFF6FE000042428004424200127A0076
:1030500000093D00BC000020CC00002010B5044653
:10306000FB48844209D101218803FFF7ADFF00210D
:103070004FF48040FFF7A8FF32E0F648844209D1C0
:1030800001214804FFF7ADFF00214FF40030FFF7A6
:10309000A8FF25E0F048844209D101218804FFF708
:1030A000A0FF00214FF48020FFF79BFF18E0EB48C2
:1030B000844209D10121C804FFF793FF00214FF496
:1030C0000020FFF78EFF0BE0E548844208D1012184
:1030D0000805FFF786FF00214FF48010FFF781FFFE
:1030E00010BD2DE9F04786B005460E460024A246E5
:1030F00000BFA1460027B08900B100BF2F462C8A2F
:103100004CF6FF700440F08804432C82AC894EF6E4
:10311000F3100440B088318908437189084304439F
:10312000AC81AC8A4FF6FF400440B0890443AC82C6
:1031300001A8FFF7C2FEC648874202D1DDF810A001
:1031400001E0DDF80CA0A88900F4004040B10AEBD2
:10315000CA0000EB0A1031684900B0FBF1F807E043
:103160000AEBCA0000EB0A1031688900B0FBF1F8E5
:103170006420B8FBF0F004012009642101FB1089F0
:10318000A88900F4004040B1322000EBC900B0FB38
:10319000F1F000F00700044308E0322000EB0910D2
:1031A0006421B0FBF1F000F00F0004432C8106B065
:1031B000BDE8F0874FF41651016000218180C18085
:1031C00001810C21418100218181704710B50246A7
:1031D0000020108A4FF2FF0318400B884C882343CD
:1031E0008C882343CC8823431843108210BD0021D0
:1031F000018041808180C180704721B1828942F481
:103200000052828104E082894DF6FF731A40828168
:103210007047F0B50346002400260025002040F644
:103220006A17B94200D100BF1846C1F3421401F039
:103230001F06012707FA06F5012C01D10C3004E026
:10324000022C01D1103000E014301AB107682F436E
:10325000076002E00768AF430760F0BD1AB1838AD8
:103260000B43838202E0838A8B4383827047028A06
:103270004FF6F0731A400282028A0A4302827047B4
:1032800082894FF2FF731A40828182890A438281C8
:10329000704721B1828942F00202828104E0828972
:1032A0004FF6FD731A4082817047028A4FF6DF7332
:1032B0001A400282028A0A430282704721B1028ABE
:1032C00042F48042028204E0028A4BF6FF731A4005
:1032D00002827047C1F308028280704701468888E5
:1032E000C0F308007047818941F001018181704776
:1032F000028BD2B20283028B42EA01220283704720
:10330000028B02F47F420283028B0A4302837047DE
:1033100021B1828A42F02002828204E0828A4FF642
:10332000DF731A408282704721B1828A42F0100214
:10333000828204E0828A4FF6EF731A4082827047DD
:1033400021B1828A42F00802828204E0828A4FF62A
:10335000F7731A408282704721B1828942F4004299
:10336000828103E08289C2F30E028281704721B11B
:10337000828A42F40062828204E0828A4FF2FF7302
:103380001A4082827047828A4FF6FB731A4082820B
:10339000828A0A438282704721B1828A42F0020205
:1033A000828204E0828A4FF6FD731A40828270475F
:1033B00002460020B1F5007F00D100BF13880B400A
:1033C0000BB1012000E00020704701F40072B2F55B
:1033D000007F00D100BFCA430280704770B502462B
:1033E000002400230025002040F66A16B14200D1D7
:1033F00000BFC1F3421501F01F03012606FA03F3D3
:10340000012D02D19689334006E0022D02D1168AA1
:10341000334001E0968A33400C12012606FA04F488
:103420001688344013B10CB1012000E0002070BDBB
:1034300010B50022002340F66A14A14200D100BF5B
:103440000A1201249440A3B2DC43048010BD0000A2
:10345000003801400044004000480040004C00405B
:103460000050004010B50446FE48844208D10121B6
:10347000C014FFF7A9FD0021E014FFF7A5FDC4E08B
:10348000B4F1804F08D101210846FFF7AAFD0021C1
:103490000120FFF7A6FDB8E0F348844208D10121DE
:1034A0000220FFF79EFD00210220FFF79AFDACE00D
:1034B000EE48844208D101210420FFF792FD00214B
:1034C0000420FFF78EFDA0E0E948844208D10121E5
:1034D0000820FFF786FD00210820FFF782FD94E019
:1034E000E448844208D101211020FFF77AFD002131
:1034F0001020FFF776FD88E0DF48844208D10121E3
:103500002020FFF76EFD00212020FFF76AFD7CE000
:10351000DA48844208D101214014FFF755FD00210B
:103520006014FFF751FD70E0D548844209D10121B4
:10353000C804FFF749FD00214FF40020FFF744FDC8
:1035400063E0D048844209D101210805FFF73CFD22
:1035500000214FF48010FFF737FD56E0CA4884423F
:1035600009D101214805FFF72FFD00214FF400107C
:10357000FFF72AFD49E0C548844208D101214020D7
:10358000FFF72FFD00214020FFF72BFD3DE0C04855
:10359000844208D101218020FFF723FD00218020F3
:1035A000FFF71FFD31E0BB48844208D1012180159F
:1035B000FFF717FD0021A015FFF713FD25E0B64822
:1035C000844209D101210804FFF7FEFC00214FF4D9
:1035D0008030FFF7F9FC18E0B048844209D101219E
:1035E0004804FFF7F1FC00214FF40030FFF7ECFC3A
:1035F0000BE0AB48844208D101218804FFF7E4FCCA
:1036000000214FF48020FFF7DFFC10BD002202886C
:10361000944B98420ED0994B98420BD0B0F1804F0A
:1036200008D0914B984205D0904B984202D0904BD5
:10363000984204D14FF68F731A404B881A438D4B32
:10364000984207D08C4B984204D04FF6FF431A4063
:10365000CB881A4302808B8883850B880385814B36
:1036600098420BD0854B984208D08B4B984205D09E
:103670008A4B984202D08A4B984201D10B7A03863A
:1036800001238382704770B5002400220023058C3B
:103690004FF6FE7635400584028C8388048B4FF606
:1036A0008F752C40B51E2C400D882C43751E2A406A
:1036B0000D892A434D882A436A4DA8420BD06F4D8D
:1036C000A84208D0744DA84205D0744DA84202D03B
:1036D000734DA84213D14FF6F7752A404D892A43FE
:1036E0004FF6FB752A408D882A434FF6FF652B4025
:1036F0004FF6FF552B408D892B43CD892B4383807B
:103700000483CD888586028470BD70B500240022B4
:103710000023058C4FF6EF7635400584028C8388B4
:10372000048B48F6FF752C404FF6FF452C400D8862
:103730004FF6FF7606EA05252C434FF6DF752A4043
:103740000D8906EA05152A434D8806EA05152A4320
:10375000444DA84202D0494DA8421DD14FF67F7575
:103760002A404D894FF6FF7606EA05152A434FF6A3
:10377000BF752A408D8806EA05152A434FF6FF35A6
:103780002B404FF2FF752B408D8906EA85052B43B0
:10379000CD8906EA85052B4383800483CD88058780
:1037A000028470BD70B5002400220023058C4FF602
:1037B000FF6635400584028C8388848B4FF68F75B5
:1037C0002C404FF6FC752C400D882C434FF6FF55CE
:1037D0002A400D894FF6FF7606EA05252A434D88D3
:1037E00006EA05252A431F4DA84202D0234DA842D0
:1037F0001DD14FF2FF752A404D894FF6FF7606EA3C
:1038000005252A434FF6FF352A408D8806EA05250F
:103810002A434EF6FF752B404DF6FF752B408D89E0
:1038200006EA05152B43CD8906EA05152B4383804F
:103830008483CD888587028470BD70B50022002303
:103840000024058C4EF6FF7635400584038C848871
:10385000828B48F6FF752A404FF6FF452A400D88B7
:1038600020E00000002C014000040040000800405F
:10387000000C0040001000400014004000340140E3
:10388000004C01400050014000540140001800402D
:10389000001C004000200040004001400044014066
:1038A000004801404FF6FF7606EA05252A434DF60B
:1038B000FF752B400D8906EA05352B434D8806EA36
:1038C00005352B43FA4DA84202D0FA4DA84208D143
:1038D0004BF6FF752C408D894FF6FF7606EA85156D
:1038E0002C4384808283CD88A0F84050038470BD2F
:1038F000828B4FF2FF331A408283828B4FF6FF7325
:1039000003EA01231A4382837047F0B50C4615463B
:10391000002200210026078C4EF6FF7C07EA0C07E8
:103920000784828B018C4FF6FF7707EA043640F656
:10393000FF473A404FF6FF7707EA05273A434FF62D
:10394000FF7707EA03373A43D94FB8420ED0D94F31
:10395000B8420BD0B0F1804F08D0D74FB84205D055
:10396000D64FB84202D0D64FB84206D14DF6FF77B7
:10397000394046F48057394305E047F6FF57394050
:1039800044F48057394382830184F0BD828B4FF623
:10399000F3731A408283828B0A4382837047F0B5A7
:1039A0000C461546002200210026078C4FF6FF6CBE
:1039B00007EA0C070784828B018C4FF6FF7707EA32
:1039C00004264FF60C773A404FF6FF7707EA0317C5
:1039D0002F433A43B64FB8420ED0B64FB8420BD041
:1039E000B0F1804F08D0B44FB84205D0B34FB842C1
:1039F00002D0B34FB84206D14FF6FF57394046F4D4
:103A00008077394305E04FF2FF57394044F480771F
:103A1000394382830184F0BD028B4FF2FF331A4099
:103A20000283028B4FF6FF7303EA01231A430283DA
:103A30007047F0B50C461546002200210026078C81
:103A40004FF6EF7C07EA0C070784028B018C4FF6D8
:103A5000FF7707EA041640F6FF473A404FF6FF7734
:103A600007EA03373A434FF6FF7707EA05273A4359
:103A70008F4FB8420ED08F4FB8420BD0B0F1804F6D
:103A800008D08D4FB84205D08C4FB84202D08C4F31
:103A9000B84206D14FF6DF77394046F01007394378
:103AA00005E04FF65F77394044F010073943028351
:103AB0000184F0BD028B4FF6F3731A400283028B30
:103AC0000A4302837047F0B50C46154600220021D8
:103AD000068C4FF6FE773E400684028B018C4FF633
:103AE0000C7632407E1C06EA03162E433243704E9B
:103AF000B0420ED06F4EB0420BD0B0F1804F08D024
:103B00006D4EB04205D06D4EB04202D06C4EB04208
:103B100006D14FF6FD76314044F00106314305E011
:103B20004FF6F576314044F00106314302830184BB
:103B3000F0BD70B505460C465D4885420ED05D4827
:103B400085420BD0B5F1804F08D05B48854205D047
:103B50005A48854202D05A48854200D100E000BF51
:103B6000208850B92389A28861882846FFF7ABFFD7
:103B7000E1882846FFF79EFF25E0208804280AD127
:103B80002389A28861882846FFF753FFE1882846E9
:103B9000FFF742FF17E0208808280AD12389A2886E
:103BA00061882846FFF7FBFEE1882846FFF7EEFE16
:103BB00009E02389A28861882846FFF7A6FEE188EC
:103BC0002846FFF795FE70BD2DE9F04105460C46ED
:103BD00000260127608808B9022600E00026A08898
:103BE000012801D1022700E001272088A0B92389FC
:103BF000A28861882846FFF766FFE1882846FFF71C
:103C000059FF23893A4631462846FFF712FFE188DB
:103C10002846FFF701FF13E02389A2886188284620
:103C2000FFF707FFE1882846FFF7F6FE23893A46AB
:103C300031462846FFF747FFE1882846FFF73AFF5D
:103C4000BDE8F0810A884B881A438B881A43CB88D9
:103C50001A430B891A434B891A438B891A43A0F8DC
:103C6000442070474FF6FF71818000210180C180A0
:103C70004180017270470021018041808180C180B4
:103C8000018141818181C181704700210180418092
:103C9000012181800021C1800181704700210180C4
:103CA00041808180C1800181418181817047000014
:103CB000002C014000340140000400400008004096
:103CC000000C004021B1028842F00102028004E0B1
:103CD00002884FF6FE731A400280704731B1B0F887
:103CE000442042F40042A0F8442005E0B0F844200B
:103CF000C2F30E02A0F8442070471AB183890B4327
:103D0000838102E083898B4383817047818270477E
:103D100041EA0203A0F8483070471AB183890B4387
:103D2000838102E083898B438381704701894FF649
:103D3000F8721140018170470A46002101894FF64F
:103D40008F73194011430181704730B504460D4609
:103D500029462046FFF7F0FF208940F00700208128
:103D600030BD2DE9F04104460D4616461F46602D34
:103D700006D13B46012231462046FFF75AFE05E0B8
:103D80003B46012231462046FFF79DFE294620464C
:103D9000FFF7D2FF208940F007002081BDE8F081C5
:103DA00030B50C4600210189C9B24FF6FF7505EA0E
:103DB0000325154325432943018130BD2DE9F041F9
:103DC00005460E4617469846002443463A46314675
:103DD0002846FFF7E5FF2C894FF6F870044044F0C1
:103DE00007044FF68F70044044F070042C81BDE846
:103DF000F081F0B504460D4616461F463B46324656
:103E000029462046FFF7CCFF208940F480402081DE
:103E1000F0BD0185828270470A46002101884FF675
:103E20008F731940114301807047F0B50C46154659
:103E30001E460021002200230189028B038C4FF6CD
:103E4000F877394021434FF6FC473A4040F20117DA
:103E50003A434FF6DD773B404FF6FF7707EA061708
:103E60002F433B43018102830384F0BD0A460021B6
:103E7000018B4FF68F7319401143018370470A4637
:103E80000021018B48F6FF7319404FF6FF7303EAD8
:103E900002231943018370470A460021818B4FF6A4
:103EA0008F7319401143818370470A460021818B2B
:103EB00048F6FF7319404FF6FF7303EA02231943D4
:103EC0008183704721B1028842F08002028004E0C1
:103ED00002884FF67F731A400280704721B18288B2
:103EE00042F00402828004E082884FF6FB731A409D
:103EF0008280704721B1828842F00802828004E00B
:103F000082884FF6F7731A408280704721B1828809
:103F100042F00102828004E082884FF6FE731A406C
:103F2000828070470A460021018B4FF6F7731940D3
:103F30001143018370470A460021018B4FF2FF7342
:103F400019404FF6FF7303EA0223194301837047B8
:103F50000A460021818B4FF6F77319401143818384
:103F600070470A460021818B4FF2FF7319404FF6CC
:103F7000FF7303EA02231943818370470A46002135
:103F8000018B4FF6FB7319401143018370470A46BA
:103F90000021018B4FF6FF3319404FF6FF7303EA00
:103FA00002231943018370470A460021818B4FF693
:103FB000FB7319401143818370470A460021818BAE
:103FC0004FF6FF3319404FF6FF7303EA02231943FC
:103FD000818370470A460021018B4FF67F73194099
:103FE0001143018370470A460021018BC1F30E0182
:103FF0004FF6FF7303EA02231943018370470A4611
:104000000021818B4FF67F731940114381837047E4
:104010000A460021818BC1F30E014FF6FF7303EABC
:1040200002231943818370470A460021018C4FF611
:10403000FD7319401143018470470A460021018C29
:104040004FF6F77319401143018470470A46002167
:10405000018C4FF6DF7319404FF6FF7303EA02132A
:104060001943018470470A460021018C4FF67F7383
:1040700019404FF6FF7303EA021319430184704796
:104080000A460021018C4FF6FF5319404FF6FF738B
:1040900003EA02231943018470470A460021018C78
:1040A0004FF2FF7319404FF6FF7303EA02231943DF
:1040B000018470470A460021018C4DF6FF731940B8
:1040C0004FF6FF7303EA023319430184704730B59A
:1040D000002301248C40A3B2048C9C430484048CF0
:1040E00002FA01F5ADB22C43048430BD30B5002393
:1040F00004248C40A3B2048C9C430484048C02FAF4
:1041000001F5ADB22C43048430BD70B503460020E8
:1041100000241846183001258D40ACB21D8CA543F3
:104120001D8409B1082909D100EB6100056825F05B
:10413000700505600568154305600EE00D1FC5F3A9
:104140004E052844056825F4E045056005684FF6EE
:10415000FF7606EA02263543056070BD21B102886C
:1041600042F00202028004E002884FF6FD731A401A
:104170000280704721B1028842F00402028004E00C
:1041800002884FF6FB731A400280704721B1828883
:1041900042F08002828004E082884FF67F731A40EA
:1041A0008280704702884FF6F7731A4002800288B7
:1041B0000A430280704782884FF68F731A408280CC
:1041C00082880A438280704702894FF6F8731A404A
:1041D000028102890A430281704702894FF67F7388
:1041E0001A40028102890A43028170478184704724
:1041F0008185704781867047018770478187704746
:10420000A0F84010704702884FF6FF431A40028022
:1042100002880A43028070470146888E7047014633
:10422000088F70470146888F70470146B1F84000FB
:1042300070470146888C70470146088D70470246DA
:104240000020138A0B400BB1012000E000207047D2
:10425000CA430282704730B5024600200023002482
:10426000158A05EA0103958905EA010413B10CB129
:10427000012000E0002030BDCA43028270470000E8
:1042800010B50446FA48844208D101214015FEF7D2
:104290009BFE00216015FEF797FE17E0F54884426B
:1042A00008D101210015FEF78FFE00212015FEF731
:1042B0008BFE0BE0F048844208D10121C803FEF7D1
:1042C00083FE00214FF40040FEF77EFE10BD30B5A6
:1042D0000246002000235068E84C20400D790C680D
:1042E00044EA0524204350609068E54C2040D1E921
:1042F00002542C434D7944EA450420439060D06A2F
:1043000020F470000C7C641EE4B2234340EA0350A6
:10431000D06230BD00210160017141718160C160D6
:1043200001210174704721B1826842F0010282606C
:1043300003E0826822F001028260704721B1826846
:1043400042F48072826003E0826822F480728260AC
:10435000704710B50023CBB21AB144681C434460C7
:1043600002E044689C43446010BD816841F008014C
:1043700081607047014600208A6802F008020AB195
:10438000012000E000207047816841F00401816055
:104390007047014600208A6802F004020AB1012039
:1043A00000E00020704721B1826842F4A0028260E0
:1043B00003E0826822F4A002826070470146002078
:1043C0008A6802F480020AB1012000E000207047F0
:1043D00010B50A4600210023416821F46041531EB4
:1043E00041EA4331416010BD21B1426842F40062AC
:1043F000426003E0426822F4006242607047F0B518
:1044000004460D4600200021092D11DDE068A5F1CC
:104410000A0606EB4607072606FA07F18843A5F1C8
:104420000A0606EB460603FA06F10843E0600CE0D4
:10443000206905EB4507072606FA07F1884305EBD7
:10444000450603FA06F108432061072A0FDA606B7C
:10445000561E06EB86071F2606FA07F18843561EEE
:1044600006EB860605FA06F10843606322E00D2A92
:104470000FDA206BD61F06EB86071F2606FA07F118
:104480008843D61F06EB860605FA06F1084320632B
:1044900010E0E06AA2F10D0606EB86071F2606FA79
:1044A00007F18843A2F10D0606EB860605FA06F130
:1044B0000843E062F0BD21B1826842F4801282605C
:1044C00003E0826822F48012826070470146C86C63
:1044D00080B2704766484C300068704721B142682E
:1044E00042F48062426003E0426822F480624260EB
:1044F000704721B1426842F48052426003E0426852
:1045000022F48052426070470A460021816821F4FB
:10451000E04111438160704721B1826842F400425A
:10452000826003E0826822F400428260704721B119
:10453000826842F40212826003E0826822F402126E
:1045400082607047014600208A6802F400120AB1B6
:10455000012000E000207047F0B504461546002019
:1045600000220026092911DDE068A1F10A0707EB06
:10457000470C072707FA0CF29043A1F10A0707EB53
:10458000470703FA07F21043E0600CE0206901EBF3
:10459000410C072707FA0CF2904301EB410703FA9D
:1045A00007F210432061A06BC0F30156EF1C06F127
:1045B000010CA7EB0C0707EB870C1F2707FA0CF27F
:1045C0009043EF1C06F1010CA7EB0C0707EB8707E4
:1045D00001FA07F21043A063F0BD10B50A460021AE
:1045E0000023816B21F44011531E41EA0351816382
:1045F00010BD08B5002300930090009B0B4400936E
:10460000009B1A6008BD08B5024600200090009289
:1046100001F12800009B184400900098006880B2C7
:1046200008BD0A4600214168164B194011434160FC
:1046300070474162826270470A460021416821F05A
:104640001F0111434160704740B1094908310968B1
:1046500041F40001064A0832116007E004490831BC
:10466000096821F40001024A083211607047000015
:104670000024014000280140003C0140FFFEF0FF03
:10468000FDF7F1FFFFFD3FFF0246002013680B40DE
:104690000BB1012000E000207047CA430260704760
:1046A00070B502460020002300240B125568CEB2DC
:1046B00005EA060415681D4015B10CB1012000E0A3
:1046C000002070BD00220A12D34303607047704778
:1046D0000FB41CB5074B06AA7B44694600900598A9
:1046E00000F00FFA0020694600F01EFA1CBC5DF8CD
:1046F00014FB00004D04000070B504468569006895
:10470000C10601D5302600E02026C00707D070BDC5
:10471000D4E9012130469047206A401C20626D1E7A
:10472000F6D570BD70B5044685690078C00707D11D
:1047300070BDD4E9012120209047206A401C2062EE
:104740006D1EF6D570BD00002DE9F041064600242F
:1047500010687529314616A510D0AFF300800028E7
:1047600002DA404213A507E031688A0701D512A595
:1047700002E0490704D511A5012401E0AFF3008050
:1047800000210A2206F1240709E0B0FBF2FCB0FB8D
:10479000F2F302FB1C00303078541846491C002804
:1047A000F3D123462A463046BDE8F04100F04BB92C
:1047B000000000002D0000002B0000002000000081
:1047C00070B504460D4621461068AFF3008021887D
:1047D000090502D50F4A7A4402E00E4A7A440E32A5
:1047E000002104F1240305E000F00F060009965DA6
:1047F0005E54491C0028F7D120780023000704D517
:10480000702D02D009B1022311322046BDE870405C
:1048100000F019B9F20800002DE9F05F894604465E
:104820004FF0000ADFF824B1FB44C0F820A0204676
:10483000E168884700287DD0252806D0D4E90121E9
:104840009047206A401C2062F1E700255F46204621
:10485000E16888472028064607DB312E05D2B819C3
:1048600010F8200C08B10543F1E7A80701D525F0A1
:104870000405C4F81CA00027C4F818A02A2E09D0EB
:10488000304600F085F938B304EB8708303EC8F8AD
:10489000186019E059F8041B204604EB8702916167
:1048A000E1688847012F064618D1E069002820DA20
:1048B00025F020051DE0D8F8180000EB800006EB7D
:1048C00040003038C8F818002046E168884706469E
:1048D00000F05EF90028EED1012F0AD02E2E08D16B
:1048E0002046E16888477F1C0646022F45F02005D8
:1048F000C4DBA069002803DA404245F00105A0614D
:10490000E80701D025F01005A6B1A6F1410019284D
:1049100002D8203645F400654A46314620462560D7
:104920004D46FBF73FFC60B1012807D0ED1D25F097
:10493000070000E007E000F1080978E705F1040945
:1049400075E730467AE7206ABDE8F09FC8080000A6
:10495000032A40F2308010F0030C00F0158011F8AB
:10496000013BBCF1020F624498BF11F801CB00F883
:10497000013B38BF11F8013BA2F1040298BF00F8D7
:1049800001CB38BF00F8013B11F0030300F0258094
:10499000083AC0F0088051F8043B083A51F804CBBB
:1049A000A0E80810F5E7121D5CBF51F8043B40F881
:1049B000043BAFF30080D20724BF11F8013B11F88C
:1049C00001CB48BF11F8012B24BF00F8013B00F8D0
:1049D00001CB48BF00F8012B704710B5203AC0F05A
:1049E0000B80B1E81850203AA0E81850B1E81850F0
:1049F000A0E81850BFF4F5AF5FEA027C24BFB1E82D
:104A00001850A0E8185044BF18C918C0BDE810409D
:104A10005FEA827C24BF51F8043B40F8043B08BFA6
:104A20007047D20728BF31F8023B48BF11F8012B6D
:104A300028BF20F8023B48BF00F8012B70477047A1
:104A40007047704770472DE9F0470D4699469246EA
:104A5000044600F124080168880604D5E06921F0C5
:104A60001001216000E00120A84201DD471B00E0A9
:104A70000027A1697A1902EB0900081AA0612078C1
:104A8000C00602D42046FFF737FE002608E0D4E92E
:104A900001211AF806009047206A401C761C20620B
:104AA0004E45F4DB2078C0060AD52046FFF724FEE9
:104AB00006E0D4E9012130209047206A401C2062A2
:104AC000381EA7F10107F4DC07E0D4E9012118F84A
:104AD00005009047206A401C2062281EA5F10105B0
:104AE000F3DC2046FFF71EFE2078000602D50220E8
:104AF000BDE8F0870120FBE701694A1C02610878E4
:104B0000704700B58FB0CDE901310021059105490D
:104B10007944CDE9031011466846FFF77DFE0FB0DA
:104B200000BD0000E5FFFFFF0A6802F8010B0A6004
:104B30007047754600F028F8AE46050069465346B2
:104B400020F00700854618B020B5FDF787FEBDE8C8
:104B500020404FF000064FF000074FF000084FF0E4
:104B6000000B21F00701AC46ACE8C009ACE8C00975
:104B7000ACE8C009ACE8C0098D4670470446AFF305
:104B800000802046FBF723FB004870475C0D0020A7
:104B900030380A2801D201207047002070470000F9
:104BA0002DE9C04130B4DFF8A0C23CEA111418BFAF
:104BB0003CEA131400F0EC8081EA03051CEA1114AE
:104BC00044EAD57418BF1CEA131500F0C780A4EBA3
:104BD00005044FF0004545EAC12145EAC32341EAF7
:104BE000505143EA525304F17F74994204F5003462
:104BF0004FEAC0204FEAC22208BF904200F09C80DA
:104C00004FEA13650FF24016765D4FEA134506FB37
:104C100005F7C7F1807706FB07F74FEAD737A7FB01
:104C200003687642C8F58038A7FB06CE38BFA8F1E6
:104C3000010807FB08E64FF0000EA6FB028CE6FB1E
:104C400003CEDCF1000CCEF1004E38BFAEF1010E08
:104C5000A6FB0C584FF000074FF00005E6FB0E874F
:104C6000A1FB08C6A0FB07CE16EB0E0645F100051A
:104C7000E1FB076515F1E04E7EBFA4F580345FEAE5
:104C800046066D4116F1800745F100054FEA1727EA
:104C90004FEA066647EA0567A6F1DE46B6F1805F91
:104CA0004FEA15251FD9384624F0010C05EBC471D5
:104CB000BCF1FE6F01EB0C1102D8F0BCBDE8008125
:104CC00024425CBF01F5801E9EEAC47F02D4F0BC82
:104CD000BDE80081244238D4F0BCA1F1C041BDE858
:104CE000004100F0EDB94FEAD22242EA43524FEAC6
:104CF000D323A7FB02864FEAD02040EA415007FBAE
:104D000003661EEA0E0F4FEAD12105FB026658BF6B
:104D1000A6EB0056B6EB00564FEA520E4EEAC37EA3
:104D200018EB0E0E56EB530EBDD518EB02085E4184
:104D30007F1C55F10005B6E74FF480154FF00007D2
:104D40004FF000064FF00008ADE7F0BC4FF0000058
:104D500001F1C04101F00041BDE8008111EA0C1FE2
:104D60000CEA131500D00CE013EA0C1F00F02580AC
:104D70004FF00000F0BC81EA030101F00041BDE802
:104D80000081F0BCBDE8004181EA030100F098B960
:104D9000F0BCBDE8004170B500F044F9097EFC3E6E
:104DA00000F007B881EA03014FF0000001F0004174
:104DB000704781EA030100F083B9F0BCBDE800410F
:104DC0004FF0000021497047FFFDFBF9F7F5F4F2C1
:104DD000F0EEEDEBE9E8E6E4E3E1E0DEDDDBDAD896
:104DE000D7D5D4D3D1D0CFCDCCCBCAC8C7C6C5C4F4
:104DF000C2C1C0BFBEBDBCBBBAB9B8B7B6B5B4B30B
:104E0000B2B1B0AFAEADACABAAA9A8A8A7A6A5A4F5
:104E1000A3A3A2A1A09F9F9E9D9C9C9B9A999998B9
:104E20009797969595949393929191908F8F8E8E5C
:104E30008D8C8C8B8B8A89898888878786858584E9
:104E400084838382828181800000FF070000F87FD5
:104E50004FEA1153A3F58063D3F11E03A8BFD3F12A
:104E6000200C08DB4FF0004242EAC12252EA5052C5
:104E700032FA03F0704709420BD4102BC4BF002054
:104E8000704703F5787CBCF1FF3F05D04FF0FF3051
:104E900070474FF00000704770B500F0C3F800BFD6
:104EA0004992248000207047F0E7B0FA80F310FAAE
:104EB00003F10AD0C3F11D0303F580634FEA4150AB
:104EC0004FEA035202EBD12170474FF000007047C8
:104ED000DFF848C170B51CEA111E1EBF1CEA13158D
:104EE0009EEA0C0F95EA0C0F00F06F8081EA030434
:104EF00023EA4C134EEAD47E21EA4C1141F480118E
:104F000043F48013AE44A1FB024CA0FB0365AEF159
:104F10007F7E361955EB0C05A1FB034C4CF10003C9
:104F2000A0FB021C16EB0C06654153F1000309427D
:104F300018BF46F0010613F4007F0BD14FEA03318E
:104F40004FEA0530340341EA155140EA16506FF03C
:104F500003020AE04FEAC3214FEAC520F40241EA06
:104F6000555140EA56506FF0020202EB2E4201EB1F
:104F7000025585EACE710AD05FEA440C18BF24F0CE
:104F8000004450F1000041F1000120EAD47040F2E9
:104F9000FE7C624500D270BDA84214BF4FF0804431
:104FA0004FF04044002E08BF0024BEF1806FA8BF20
:104FB000A1F1C041BDE8704080F282804FF0000056
:104FC00001F1C04101F0004170479EEA0C0F0CEA6C
:104FD000131518BF95EA0C0F06D04FF0000081EAB8
:104FE000030E0EF0004170BD00F01CF88900013E78
:104FF00000F007B800F009B84FEA430C5FEA5C5CC8
:1050000008D081EA030100F05BB84FEA410C5FEA87
:105010005C5CF6D14FF00000014970470000FF07CB
:105020000000F87F0EF1020E2EF0030E5EF8046B06
:10503000364205D4012A43EB030515F5001F12D8AB
:10504000012841EB010C1CF5001F0CD80ED14FEAD2
:10505000D17C15F5001F0CEB4C0C0CF1020C08BFB9
:105060004CEBD37C04E04FF0080C01E04FEAD37C1A
:105070000CEB4C0526FA05F606F00706B6F1040C13
:1050800006D20EEB860CBDE870404CF0010C604778
:10509000DFE80CF0090B02024FF000414FF0000076
:1050A000A1F5002170BD19461046012851EB0104FD
:1050B00018BFD4F5001484BF002001F0004170BD7A
:1050C0000808A0F500114FEA310170473031323342
:1050D000343536373839414243444546403058002C
:1050E000303132333435363738396162636465665E
:1050F00040307800040000080000000000000002BA
:1051000000010000100000002851000800000020ED
:10511000D00000006C010008F8510008D000002009
:10512000F0120000880100080000000000000000EC
:10513000000000000000000000000000000000006F
:10514000000000000000000000000000000000005F
:105150000000000000A24A0400000000000000005F
:1051600001020304060708090064006400006400EB
:1051700014141414141414001400000000000A0085
:105180000200050000000000000000008000000098
:10519000000000000000000000000000000000000F
:1051A00000000000000000000000000000000000FF
:1051B00000000000000000000000000000000000EF
:1051C000000000000000000000000000E7038B2248
:1051D000F875002D58FAEC2CD37A7AFF0000000005
:1051E00000000000000000000102030401020304AB
:0851F000060708090204060885
:0400000508000131BD
:00000001FF
