:020000040800F2
:10000000000800202D2A0008DD0A0008DF0A000889
:10001000E30A0008E70A0008EB0A000800000000F5
:10002000000000000000000000000000EF0A0008CF
:10003000F10A000800000000F30A0008F50A0008B1
:10004000472A0008472A0008472A0008472A0008CC
:10005000472A0008472A0008472A0008472A0008BC
:10006000472A0008472A0008472A0008472A0008AC
:10007000472A0008472A0008472A0008472A00089C
:10008000472A0008472A0008472A0008472A00088C
:10009000472A0008472A0008472A0008472A00087C
:1000A000472A0008472A0008472A0008472A00086C
:1000B000472A00089F1B0008472A0008472A000813
:1000C000472A0008472A0008472A0008472A00084C
:1000D000472A000817280008472A0008472A00086E
:1000E000AF0A0008472A0008472A0008472A0008E4
:1000F000472A0008472A0008472A0008472A00081C
:10010000472A0008472A0008472A0008472A00080B
:10011000472A0008472A0008472A0008472A0008FB
:10012000472A0008472A0008472A0008472A0008EB
:1001300000F002F800F042F80AA090E8000C8244B7
:100140008344AAF10107DA4501D100F037F8AFF294
:10015000090EBAE80F0013F0010F18BFFB1A43F0A5
:1001600001031847FC4900001C4A0000103A24BF54
:1001700078C878C1FAD8520724BF30C830C144BF0C
:1001800004680C607047000000230024002500264E
:10019000103A28BF78C1FBD8520728BF30C148BFEA
:1001A0000B607047642904F09382782904F0CC82B4
:1001B000002070471FB51FBD10B510BD04F07DFCB9
:1001C0001146FFF7F7FF00F070FA04F09BFC03B450
:1001D000FFF7F2FF03BC02F0C3FA0000F8490A6817
:1001E00002604A684260896881607047012080F33C
:1001F000138800BF00BFF348006800F4E060F249D4
:100200000843001DEF490860BFF3408F00BF00BFE7
:10021000FEE710B504460CB900F0FAFE012C01D13E
:1002200000F0DCFE10BDE94A1288C2F397120A7092
:10023000E64A12789206120E4A708870E44A1288D2
:10024000120ACA70E24A12780A71704700B58BB080
:10025000DE480068401CDD49086006A8FFF7BEFFC5
:1002600009A94020FFF7DFFF099801909DF82800B9
:100270008DF808000698CDF809000798CDF80D0014
:100280000898CDF81100122101A802F03EF90122D0
:10029000122101A802F050FB0BB000BD00B589B0DF
:1002A000CA480068401CC949086007A91020FFF728
:1002B000BAFF04A800F002FE079800909DF8200005
:1002C0008DF804000498CDF805000598CDF80900D4
:1002D000BDF81800ADF80D000F21684602F015F9C1
:1002E00001220F21684602F027FB09B000BD00B5CE
:1002F00087B0B6480068401CB449086005A93020A2
:10030000FFF791FF059801909DF818008DF80800FF
:10031000B04880788DF80900AE48C0788DF80A00A2
:10032000AC4880788DF80B00AA48C0788DF80C0096
:10033000A9494888C11700EB1161090A8DF80D1011
:10034000A5494888C11700EB11610912A0EB0121F2
:10035000C9B28DF80E10A04909880A2291FBF2F06B
:10036000C11700EB1161090A8DF80F109A4909882D
:1003700091FBF2F0C11700EB11610912A0EB012112
:10038000C9B28DF8101094498888C11700EB11612B
:10039000090A8DF8111090498888C11700EB116186
:1003A0000912A0EB0121C9B28DF81210102101A889
:1003B00002F0ABF80122102101A802F0BDFA07B04B
:1003C00000BD10B586B0044680480068401C7F49D7
:1003D000086004A92046FFF726FF03A800F0A1FD4E
:1003E000049800909DF814008DF804000398CDF84F
:1003F00005000A21684602F088F801220A216846B1
:1004000002F09AFA01207549086006B010BD30B5B7
:1004100085B005460C466D480068401C6B49086075
:1004200025B103A92020FFF7FEFE03E003A92F203A
:10043000FFF7F9FE2046E11704EB1161090A8DF878
:100440000810E11704EB11610912A4EB0121C9B2F4
:100450008DF80910039800909DF810008DF80400A5
:10046000BDF80800ADF805000821684602F04DF817
:1004700001220A21684602F05FFA05B030BD1FB5BF
:1004800002A96020FFF7CFFE029800909DF80C00B3
:100490008DF804000621684602F037F80122062193
:1004A000684602F049FA1FBD1FB502A97020FFF788
:1004B000BAFE029800909DF80C008DF80400062109
:1004C000684602F022F801220621684602F034FA5A
:1004D0001FBD1CB530208DF800008DF801008DF88F
:1004E00002003B480088000A8DF803003848007875
:1004F0008DF804000621684602F007F8684601F00E
:10050000B4F91CBD10B50020354908803549086094
:100510003549086031490860344908602B49086052
:100520002B49086032490880324908803249086006
:100530003249086002F030F84FF4A06002F096FAF9
:100540004FF4E13002F01BF900F07EFD00F0ABFD4E
:1005500000F018FD10BD10B529492A4800F08AFCAA
:10056000284800782849887026484078C87025486F
:10057000807808712348C07848718978224AD278F7
:100580001144214A127911441F4A52798818C1171F
:1005900000EB9171C1F387011B4A51701848007834
:1005A0001146087016484078C88000F0FFFB1748D5
:1005B0000078B0F1FF3F2CD050B301283BD133E09D
:1005C000E8F7FF1F0CED00E00000FA051400002022
:1005D00018000020480000205E00002008000020D5
:1005E000280000200000002004000020100000204F
:1005F0000C0000201C00002020000020240000200F
:100600002E0000202A000020500000205A00002068
:1006100006E0FE48006810B9F320FFF7D2FE0AE0BA
:100620000020FA49086006E0F848006810B9F22096
:10063000FFF7C7FE00BF00BFF5484078B0F1FF3FAD
:1006400003D048B1012812D10AE0F048006810B97F
:10065000F120FFF7B6FE0AE00020EC49086006E052
:10066000EA48006810B9F020FFF7ABFE00BF00BFFA
:10067000E7488078B0F1FF3F03D048B1012812D19C
:100680000AE0E248006810B9F520FFF79AFE0AE098
:100690000020DE49086006E0DC48006810B9F4205C
:1006A000FFF78FFE00BF00BF10BDBAB000250020CD
:1006B0000390FFF727FF4FF4FA5002F0A0F9FFF77D
:1006C000F3FE0421D34802F04EFB4FF48071D24870
:1006D00002F049FB00F0CBFF41F2883002F08FF9C5
:1006E000002002F011F9012002F00EF9002207218A
:1006F000CAA002F021F968E0FFF7A8FD0421C5486F
:1007000002F02FFB0020C7490880049059E00498AC
:10071000401CC0B2049040F6B83002F070F9C148F5
:10072000008800F4004000284AD0BE480088C0F38A
:100730000C05002405E0BC48005D08A90855601CB4
:10074000C4B2AC42F7DB0020B64908809DF8230014
:1007500050280BD1681E85B2002405E008A9601C52
:10076000085C0855601CC4B2AC42F7DB9DF8210060
:1007700050280FD1681C85B2681EC4B205E0601E07
:1007800008A9085C0855601CC4B2012CF7DA0020E7
:100790008DF820009DF82200502811D1062108A8CC
:1007A00001F0D8FE18B900209E49088009E09DF8A4
:1007B00024109DF8230001EB00209C49086003E011
:1007C00000BF04980A28A2DB00BF984800680028F0
:1007D00092D000208DF814008DF815008DF81600C9
:1007E00092480088000A8DF81700904800788DF82C
:1007F0001800062105A801F088FE05A800F0F5FF05
:100800000421844802F0ADFA41F2883002F0F7F892
:1008100003E04FF47A7002F0F2F84FF4805184480C
:1008200002F085FA0028F4D000207E4908800024D8
:1008300004E000207C490855601CC4B2C82CF8DBD9
:100840004FF48071744802F08CFA2FE16421022089
:1008500001F0D0FE642002F0D2F80398401CC0B230
:100860000390322803DD0020039001F0FDFE6D4867
:10087000008800F40040002873D06A480088C0F364
:100880000C05002408E06848005D08A90855002010
:1008900065490855601CC4B2AC42F4DB00206149D4
:1008A0000880E9B208A801F055FE38B900205D497A
:1008B000088000210846FFF7AAFDF7E09DF82120F7
:1008C00002F58070C21700EB12621212A0EB022335
:1008D0009DF8202002F58071CA1701EB12621212F6
:1008E000A1EB022203EB0222524B1A609DF8220078
:1008F0004FEA20199DF82200C11700EB1171091170
:10090000A0EB011101F0FF0AB9F1000F09D0B9F114
:10091000010F15D0B9F1020F1ED0B9F1030F0ED19E
:1009200027E09DF822B05846FFF773FC00203D49B0
:1009300008804048008881B20120FFF768FDB2E0DE
:10094000FFF709FEFFF7AAFC4FF47A7002F057F8A0
:10095000002034490880A6E0079818B1012803D187
:1009600001E0A2E000E000BF00BF00202D490880A8
:1009700099E0BAF1000F06D0BAF1010F2ED0BAF10A
:10098000020F2AD169E02C48C0882B498988CDE91B
:1009900000109DF826C00CF580774FEAE77C07EB46
:1009A0001C6C4FEA2C2CA7EB0C2C0CF0FF039DF8D1
:1009B00025C00CF580784FEAE87C08EB1C6C4FEA08
:1009C0002C2CA8EB0C2C0CF0FF02DFF86CC09CF870
:1009D00001109CF8000000F0D9F95FE09DF82600B6
:1009E00000F58077F81707EB10600012A7EB0020E6
:1009F00080B29DF8251001F580784FEAE87108EB88
:100A000011610912A8EB012189B217E0080000204A
:100A10005A000020001401400008014041542B45B9
:100A20004E544D00C0000020D800002018000020C7
:100A3000001001401000002048000020DFF890C0A6
:100A4000CDE900109CF803309CF802209CF80110BE
:100A50009CF8000000F09AF920E09DF8262002F5AD
:100A60008070C21700EB12621212A0EB02239DF8F5
:100A7000252002F58071CA1701EB12621212A1EB58
:100A8000022203EB022296B212498A880888314674
:100A900000F087F9304600F074FE00BF00BF002070
:100AA0000D49088000BF00BF00E000BFCEE610B5D2
:100AB0000A2001F0A4FF01F02FFEFFF7E0FC002068
:100AC000054908804FF4806003F055FD10BD00001B
:100AD000480000205E000020C0000020704700BFDA
:100AE000FEE700BFFEE700BFFEE700BFFEE770477E
:100AF00070477047704700000CB5002001900090CF
:100B00006C48006840F480306A49086000BF69485A
:100B1000006800F4003000900198401C019000989B
:100B200018B90198B0F5A06FF1D16248006800F4DF
:100B3000003010B10120009001E0002000900098EA
:100B4000012843D15C48006840F010005A49086011
:100B50000846006820F0030008600846006840F07E
:100B6000020008605348406852494860084640689F
:100B700048600846406840F4806048600846406825
:100B800020F47C1048600846406840F4E810486053
:100B90000846006840F08070086000BF4548006863
:100BA00000F000700028F9D04248406820F00300AF
:100BB000404948600846406840F00200486000BF75
:100BC0003C48406800F00C000828F9D10CBD10B575
:100BD000FFF792FF10BD10B53648006840F00100E5
:100BE0003449086008464068344908403149486043
:100BF00008460068324908402E49086008460068E7
:100C000020F4802008600846406820F4FE00486018
:100C10004FF41F008860FFF7DAFF4FF000602949AA
:100C2000086010BD10B5002100200022214B5B6838
:100C300003F00C0121B1042906D0082928D107E0CE
:100C4000214B224C236027E01F4B204C236023E0E4
:100C5000184B5B6803F47010164B5B6803F480322A
:100C6000022303EB904022B9194B4343174C2360F6
:100C70000DE0104B5B6803F4003323B1144B434386
:100C8000124C236003E0104B4343104C236003E0FD
:100C90000D4B0E4C236000BF00BF064B5B68C3F3D7
:100CA00003130C4CE15C094B1B68CB40074C2360E1
:100CB00010BD000000100240002002400000FFF8BC
:100CC000FFFFF6FE08ED00E000127A00340000207D
:100CD00000093D003800002070B5044604F14101D0
:100CE000C8B200F0B5F9322001F07AFE00F0BDF98B
:100CF0000546284670BD70B5044604F14101C8B2EE
:100D000000F0D5F9322001F06BFE00F0DDF9054668
:100D1000284670BD0CB50146C8098DF80000C1F326
:100D200080108DF80100C1F340108DF80200C1F36E
:100D300000108DF80300C1F3C0008DF80400C1F36A
:100D400080008DF80500C1F340008DF8060001F029
:100D500001008DF8070068460CBD01460A78D201F3
:100D60004B7802EB83128B7802EB4312CB7802EBC9
:100D700003120B7902EBC3024B7902EB83028B79EE
:100D800002EB4302CB791A44D0B2704770B5DDE96B
:100D900004456F4E30707170B270F370B480F5809E
:100DA00070BD6C4B188059809A8070476A480078F3
:100DB00067490978884203DAFF206849087008E02B
:100DC0006548007862494978884202DD012063491C
:100DD0000870614840785E498978884203DAFF20CC
:100DE0005E49487008E05C4840785949C9788842B3
:100DF00002DD0120594948705748C0885449898804
:100E0000884203DAFF205549887008E05248C088BC
:100E10004F49C988884202DD0120504988707047D7
:100E200010B50320FFF758FF4D4908700220FFF767
:100E300053FF4C4908700120FFF74EFF4A490870E4
:100E40000020FFF749FF494908700320FFF753FFCF
:100E5000474908700220FFF74EFF464908700120FD
:100E6000FFF749FF444908700020FFF744FF43495A
:100E7000087010BD70B504460D460020FFF72CFF2A
:100E800020700120FFF728FF60700220FFF724FF89
:100E9000A0700320FFF720FFE0700020FFF72BFF7A
:100EA00028700120FFF727FF68700220FFF723FF5B
:100EB000A8700320FFF71FFFE87070BD264909786E
:100EC00001702549897841702349C9788170224988
:100ED0000979C1702049497901711F4AD188CA171F
:100EE00001EB1262120A42711B4AD188CA1701EB48
:100EF00012621212A1EB02228271174A1189CA17DB
:100F000001EB1262120AC271134A1189CA1701EB6E
:100F100012621212A1EB022202720021184A116021
:100F200070470D49097801700B49497841700A4AA8
:100F3000D188CA1701EB1262120AC270064AD18820
:100F4000CA1701EB12621212A1EB02220271704762
:100F5000480000205E000020500000205A000020C1
:100F6000640000206500002066000020670000206B
:100F700068000020690000206A0000206B0000204B
:100F80002400002008B50121102002F0F9F84FF4E8
:100F90008070ADF8000010208DF8030003208DF85C
:100FA00002006946274801F02FFE4FF48071254862
:100FB00001F0D9FE4FF40070ADF8000010208DF85C
:100FC000030003208DF8020069461E4801F01CFE54
:100FD0004FF400711B4801F0C6FE08BD10B54FF478
:100FE0008071184801F0BFFE4FF40071154801F000
:100FF000B8FE4FF4AF7001F002FD4FF4807111485C
:1010000001F0B1FE4FF400710E4801F0ACFE10BDCE
:1010100010B54FF480710B4801F0A3FE4FF400713E
:10102000084801F0A0FE4FF4AF7001F0E8FC4FF467
:101030008071044801F097FE4FF40071014801F0FF
:1010400092FE10BD0010014010B500F05BF810BD1D
:1010500010B5044600F08BF8902000F017F92046F8
:1010600000F014F900F09DF810BD10B500F07FF805
:10107000912000F00BF9002000F04AF9044600F03E
:1010800090F8204610BD10B5044600F070F890208E
:1010900000F0FCF8402000F0F9F8204600F0F6F8E7
:1010A00000F07FF810BD10B500F05CF910BD10B570
:1010B000044600F090F9902000F032FA204600F04B
:1010C0002FFA00F0A6F910BD10B500F084F99120B8
:1010D00000F026FA002000F06DFA044600F099F9BD
:1010E000204610BD10B5044600F075F9902000F0C0
:1010F00017FA402000F014FA204600F011FA00F030
:1011000088F910BD08B50121082002F039F8C02087
:10111000ADF8000014208DF8030003208DF80200C4
:101120006946FE4801F070FDC021FC4801F019FE3F
:1011300008BD08B58020ADF8000014208DF803002C
:1011400003208DF802006946F44801F05DFD08BDFA
:1011500008B58020ADF8000001208DF802000420C1
:101160008DF803006946ED4801F04EFD08BD10B54D
:10117000FFF7DFFF8021E94801F0F3FD4021E74858
:1011800001F0EFFD042001F02BFC8021E34801F089
:10119000EAFD042001F024FC4021E04801F0E3FDD9
:1011A00010BD10B5FFF7C5FF4021DC4801F0DBFDA5
:1011B0008021DA4801F0D7FD042001F011FC402124
:1011C000D64801F0CEFD8021D44801F0CAFD0420AC
:1011D00001F006FC10BD10B50024FFF7B9FF802117
:1011E000CE4801F0BEFD012001F0FAFB4021CB48C2
:1011F00001F0B7FD012001F0F3FB07E0601CC4B271
:10120000FA2C03DDFFF7CDFF012010BD8021C3487C
:1012100001F08DFD0028F1D14021C04801F0A3FD6F
:101220000020F2E710B54021BC4801F09CFDFFF71B
:1012300080FF8021B94801F096FD022001F0D0FB2B
:101240004021B64801F08DFD022001F0C9FB40218C
:10125000B24801F088FD10BD10B54021AF4801F043
:1012600082FDFFF766FF8021AC4801F07AFD022085
:1012700001F0B6FB4021A94801F073FD022001F006
:10128000AFFB4021A54801F06EFD10BD70B50446CE
:10129000FFF74FFF4021A14801F065FD00251FE049
:1012A000E00920B180219D4801F05BFD03E0802131
:1012B0009A4801F058FD6006040E022001F090FBF0
:1012C0004021964801F04DFD022001F089FB4021AC
:1012D000924801F048FD022001F082FB681CC5B273
:1012E000082DDDDB80218D4801F03BFD022001F05F
:1012F00077FB4021894801F034FD022001F070FBAA
:101300004021864801F02FFD022001F069FB70BDED
:1013100070B505460024FFF71BFF002618E04021AA
:101320007E4801F020FD022001F05AFB40217B485D
:1013300001F017FD6006040E8021784801F0F7FCEB
:1013400008B1601CC4B2012001F04AFB701CC6B297
:10135000082EE4DB15B9FFF77FFF01E0FFF762FF1E
:10136000204670BD08B50121082001F009FF4FF4A7
:101370004060ADF8000014208DF8030003208DF8C4
:1013800002006946654801F03FFC4FF44061634844
:1013900001F0E7FC08BD08B54FF40060ADF80000AF
:1013A00014208DF8030003208DF8020069465B4885
:1013B00001F02AFC08BD08B54FF40060ADF800004C
:1013C00001208DF8020004208DF80300694653487F
:1013D00001F01AFC08BD10B5FFF7DDFF4FF4006106
:1013E0004E4801F0BEFC4FF480614C4801F0B9FC5E
:1013F000042001F0F5FA4FF40061484801F0B3FC15
:10140000042001F0EDFA4FF48061444801F0ABFC98
:1014100010BD10B5FFF7BFFF4FF480613F4801F0EA
:10142000A2FC4FF400613D4801F09DFC042001F056
:10143000D7FA4FF48061394801F093FC4FF4006112
:10144000364801F08EFC042001F0CAFA10BD10B538
:101450000024FFF7B0FF4FF40061304801F081FC39
:10146000012001F0BDFA4FF480612C4801F079FCB5
:10147000012001F0B5FA07E0601CC4B2FA2C03DDCC
:10148000FFF7C7FF012010BD4FF40061234801F0B2
:101490004EFC0028F0D14FF48061204801F063FC3D
:1014A0000020F0E710B54FF480611C4801F05BFCB0
:1014B000FFF771FF4FF40061184801F054FC02205F
:1014C00001F08EFA4FF48061144801F04AFC0220CA
:1014D00001F086FA4FF48061104801F044FC10BD21
:1014E00010B54FF480610D4801F03DFCFFF753FF4C
:1014F0004FF40061094801F034FC022001F070FA59
:101500004FF48061054801F02CFC022001F068FADC
:101510004FF48061014801F026FC10BD000C014031
:1015200070B50446FFF737FF4FF48061384801F08B
:101530001AFC002523E0E00928B14FF4006134488B
:1015400001F00FFC04E04FF40061314801F00BFCA6
:101550006006040E022001F043FA4FF480612C482B
:1015600001F0FFFB022001F03BFA4FF480612848B4
:1015700001F0F9FB022001F033FA681CC5B2082D16
:10158000D9DB4FF40061224801F0EBFB022001F0AF
:1015900027FA4FF480611E4801F0E3FB022001F0BE
:1015A0001FFA4FF480611A4801F0DDFB022001F0C0
:1015B00017FA70BD70B505460024FFF7FCFE002643
:1015C0001BE04FF48061124801F0CDFB022001F0D6
:1015D00007FA4FF480610E4801F0C3FB6006040E69
:1015E0004FF400610A4801F0A2FB08B1601CC4B2CC
:1015F000012001F0F5F9701CC6B2082EE1DB15B927
:10160000FFF76EFF01E0FFF74DFF204670BD0000C1
:10161000000C014010B52B2001F065F92B2001F0E2
:1016200062F92B2001F05FF94FF4FA7001F0E7F94D
:10163000612001F058F910BD10B500220721E0A08B
:1016400001F07AF910BD08B50121102001F098FDD4
:101650004FF48050ADF8000004208DF80300032003
:101660008DF802006946D84801F0CEFA08BD10B5E1
:10167000FFF7E9FFFFF7E0FF4FF4FA7001F0BFF961
:10168000FFF7C8FF4FF4FA7001F0B9F900222021EA
:10169000CEA001F051F94FF4FA7001F0B0F9002238
:1016A0000E21D3A001F048F94FF4FA7001F0A7F928
:1016B00000221F21D2A001F03FF94FF4FA7001F08F
:1016C0009EF900220D21D6A001F036F94FF4FA70F0
:1016D00001F095F900222421D5A001F02DF94FF455
:1016E000FA7001F08CF900221121DBA001F024F93D
:1016F0004FF4FA7001F083F900220D21DBA001F014
:101700001BF94FF4FA7001F07AF900220F21DBA0E7
:1017100001F012F94FF4FA7001F071F900220B2177
:10172000DAA001F009F94FF4FA7001F068F900222B
:101730000421D9A001F000F941F2883001F05FF9ED
:1017400003E04FF47A7001F05AF94FF480519E484B
:1017500001F0EDFA0028F4D010BD10B500221321DD
:10176000CFA001F0E9F84FF4FA7001F048F9002237
:101770000921D0A001F0E0F84FF4FA7001F03FF930
:1017800010BD70B588B00446CDA60A2C01DA01253B
:1017900006E00A2C03DB642C01DA022500E00325B5
:1017A0002246CCA101A802F057FF1022314603A81F
:1017B00003F092F82A4601A907A803F0D2F805F130
:1017C000100081B2002203A801F0B6F84FF4FA70BD
:1017D00001F015F900220921B6A001F0ADF84FF48F
:1017E000FA7001F00CF908B070BD70B58AB005460A
:1017F000B9A610223146684603F06EF822208DF813
:10180000100000240DE02A5DB8A109A802F024FF11
:101810000DF1110000EB4400BDF824100180601CA4
:1018200084B2062CEFDB66208DF81D0065208DF854
:101830001E0030208DF81F0061208DF820006520EB
:101840008DF8210066208DF8220022208DF82300DB
:1018500000222421684601F06FF84FF4FA7001F07D
:10186000CEF8FFF77AFF0AB070BD70B58AB00546B2
:1018700099A610223146684603F02EF822208DF8F2
:10188000100000240DE02A5D98A109A802F0E4FEF2
:101890000DF1110000EB4400BDF824100180601C24
:1018A00084B2062CEFDB66208DF81D0065208DF8D4
:1018B0001E0030208DF81F0061208DF8200065206B
:1018C0008DF8210066208DF8220022208DF823005B
:1018D00000222421684601F02FF84FF4FA7001F03D
:1018E0008EF80022092173A001F026F84FF4FA7057
:1018F00001F085F80AB070BD2DE9F0438FB00646BF
:101900000C4617460FF2EC180FF2002942F2107045
:10191000874201DB052500E004251422414602A888
:1019200002F0DAFFA21C314607A802F0D5FF2C21F5
:1019300004F1160002AA11543A4666A1684602F064
:101940008BFE07A92144C81C2A46694602F0C4FF41
:1019500004F11700284481B2002202A800F0ECFF35
:101960004FF47A7001F04BF800221621484600F03F
:10197000E3FF642001F043F80FB0BDE8F08310B539
:1019800068A400220921204600F0D6FF642001F05F
:1019900036F810BD10B566A400221321204600F0D1
:1019A000CBFF642001F02BF810BD10B541A400223C
:1019B0000921204600F0C0FF642001F020F810BD8E
:1019C00041542B454E544D000010014041542B55BD
:1019D0004152543D3131353230302C224E4F4E453C
:1019E000222C382C312C224E4F4E45220000000074
:1019F00041542B41504E3D22636D6E6574220000B0
:101A000041542B484541525444543D2230303030EB
:101A10003030303030304646464530414546220071
:101A200041542B4845415254544D3D333000000041
:101A300041542B534F434B413D22544350222C22BF
:101A40003132332E3230362E32312E323430222C97
:101A5000323331380000000041542B534F434B4187
:101A6000534C3D226C6F6E672200000041542B5591
:101A70004154454E3D226F6E2200000041542B43DD
:101A80004D4450573D2269726774220041542B53D4
:101A9000544D53473D22220041542B530000000077
:101AA000697267742341542B534C45455054494D3A
:101AB0003D323000697267742341542B530000009B
:101AC000697267742341542B4845415254544D3D2B
:101AD0000000000025640000697267742341542BE4
:101AE000484541525444543D0000000025303258CE
:101AF00000000000697267742341542B534F434B1D
:101B0000413D22544350222C00000000697267744A
:101B10002341542B534F434B41534C3D226C6F6E2A
:101B200067220000697267742341542B5A00000039
:101B3000697267742341542B41504E3D22636D6E90
:101B4000657422007FB505460C460121022001F094
:101B500024FBADF80850ADF804400020ADF80A00B1
:101B6000ADF8060001A9114801F046FE0122114618
:101B70000E4802F0B8F91D208DF8000000208DF805
:101B8000010003208DF8020001208DF80300684653
:101B900000F071FF0121054802F08AF97FBD10B500
:101BA0000121024802F04DFC10BD0000000400407D
:101BB000002101604160FE498160FE4AC260CA4363
:101BC0000261FC4AD2434261704770B5034600246B
:101BD000002010E00E5C451C4D5D46EA0526851C84
:101BE0004D5D46EA0546C51C4D5D46EA056543F870
:101BF0002450641C001D9042ECD370BD2DE9F043CD
:101C0000C0B080468946D8F80040D8F80450D8F8CB
:101C10000860D8F80C70402249466846FFF7D5FFA7
:101C200005EA060027EA0501084300990844E2494D
:101C300008440444E00140EA54642C4404EA0500EA
:101C400026EA0401084301990844DC490844074492
:101C5000380340EA1757274407EA040025EA07013A
:101C6000084302990844D64908440644700440EAEF
:101C7000D6363E4406EA070024EA060108430399E3
:101C80000844D04908440544A80540EA9525354450
:101C900005EA060027EA0501084304990844CA49F1
:101CA00008440444E00140EA54642C4404EA05007A
:101CB00026EA0401084305990844C4490844074436
:101CC000380340EA1757274407EA040025EA0701CA
:101CD000084306990844BE4908440644700440EA93
:101CE000D6363E4406EA070024EA0601084307996F
:101CF0000844B84908440544A80540EA95253544F8
:101D000005EA060027EA0501084308990844B24994
:101D100008440444E00140EA54642C4404EA050009
:101D200026EA0401084309990844AC4908440744D9
:101D3000380340EA1757274407EA040025EA070159
:101D400008430A990844A0F524404F38064470041B
:101D500040EAD6363E4406EA070024EA0601084374
:101D60000B9908449E4908440544A80540EA952576
:101D7000354405EA060027EA050108430C990844A2
:101D8000984908440444E00140EA54642C4404EABD
:101D9000050026EA040108430D99084492490844C5
:101DA0000744380340EA1757274407EA040025EAA6
:101DB000070108430E9908448C49084406447004FE
:101DC00040EAD6363E4406EA070024EA0601084304
:101DD0000F990844864908440544A80540EA95251A
:101DE000354405EA070026EA07010843019908443B
:101DF000804908440444600140EAD4642C4404EA65
:101E0000060025EA06010843069908447A49084471
:101E10000744780240EAD757274407EA050024EA36
:101E2000050108430B990844744908440644B0036B
:101E300040EA96463E4406EA040027EA04010843C5
:101E4000009908446E4908440544280540EA1535C0
:101E5000354405EA070026EA0701084305990844C6
:101E6000684908440444600140EAD4642C4404EA0C
:101E7000060025EA060108430A9908446249084415
:101E80000744780240EAD757274407EA050024EAC6
:101E9000050108430F9908445C4908440644B0030F
:101EA00040EA96463E4406EA040027EA0401084355
:101EB00004990844564908440544280540EA153564
:101EC000354405EA070026EA070108430999084452
:101ED000504908440444600140EAD4642C4404EAB4
:101EE000060025EA060108430E9908444A490844B9
:101EF0000744780240EAD757274407EA050024EA56
:101F00000501084303990844444908440644B003C2
:101F100040EA96463E4406EA040027EA04010843E4
:101F2000089908443E4908440544280540EA153507
:101F3000354405EA070026EA070108430D990844DD
:101F4000384908440444600140EAD4642C4404EA5B
:101F5000060025EA0601084302990844324908446C
:101F60000744780240EAD757274407EA050024EAE5
:101F700005010843079908442C4908440644B00366
:101F800040EA96463E4406EA040027EA0401084374
:101F90000C990844264908440544280540EA1535AB
:101FA000354485EA0600784005990844214943E014
:101FB0000123456789ABCDEF78A46AD756B7C7E848
:101FC000DB702024EECEBDC1AF0F7CF52AC687475B
:101FD000134630A8019546FDD8988069AFF7448B29
:101FE000BED75C892211906B937198FD8E4379A6C0
:101FF0002108B44962251EF640B340C0515A5E26FE
:10200000AAC7B6E95D102FD65314440281E6A1D8C1
:10201000C8FBD3E7E6CDE121D60737C3870DD5F45A
:10202000ED145A4505E9E3A9F8A3EFFCD9026F675F
:102030008A4C2A8D4239FAFF08440444200140EAC0
:1020400014742C4484EA0500704008990844FC4943
:1020500008440744F80240EA5757274487EA040037
:1020600068400B990844F74908440644300440EAA4
:1020700016463E4486EA070060400E990844F2493D
:1020800008440544E80540EA5525354485EA06003C
:10209000784001990844ED4908440444200140EA8D
:1020A00014742C4484EA0500704004990844E849FB
:1020B00008440744F80240EA5757274487EA0400D7
:1020C000684007990844E34908440644300440EA5C
:1020D00016463E4486EA070060400A990844DE49F5
:1020E00008440544E80540EA5525354485EA0600DC
:1020F00078400D990844D94908440444200140EA35
:1021000014742C4484EA0500704000990844D449B2
:1021100008440744F80240EA5757274487EA040076
:10212000684003990844CF4908440644300440EA13
:1021300016463E4486EA0700604006990844CA49AC
:1021400008440544E80540EA5525354485EA06007B
:10215000784009990844C54908440444200140EAEC
:1021600014742C4484EA050070400C990844C0495A
:1021700008440744F80240EA5757274487EA040016
:1021800068400F990844BB4908440644300440EABB
:1021900016463E4486EA0700604002990844B64964
:1021A00008440544E80540EA5525354465EA07003A
:1021B000704000990844B14908440444A00140EA31
:1021C00094642C4464EA0600684007990844AC49CA
:1021D00008440744B80240EA9757274467EA0500D5
:1021E00060400E990844A74908440644F00340EAB9
:1021F00056463E4466EA0400784005990844A249E0
:1022000008440544680540EAD525354465EA0700D9
:1022100070400C9908449D4908440444A00140EAD8
:1022200094642C4464EA0600684003990844984981
:1022300008440744B80240EA9757274467EA050074
:1022400060400A990844934908440644F00340EA70
:1022500056463E4466EA04007840019908448E4997
:1022600008440544680540EAD525354465EA070079
:10227000704008990844894908440444A00140EA90
:1022800094642C4464EA060068400F990844844929
:1022900008440744B80240EA9757274467EA050014
:1022A0006040069908447F4908440644F00340EA28
:1022B00056463E4466EA040078400D9908447A493F
:1022C00008440544680540EAD525354465EA070019
:1022D000704004990844754908440444A00140EA48
:1022E00094642C4464EA060068400B9908447049E1
:1022F00008440744B80240EA9757274467EA0500B4
:102300006040029908446B4908440644F00340EADF
:1023100056463E4466EA04007840099908446649F6
:1023200008440544680540EAD5253544D8F800003E
:102330002044C8F80000D8F804002844C8F8040075
:10234000D8F808003044C8F80800D8F80C00384421
:10235000C8F80C0040B0BDE8F0832DE9F047044612
:102360000F4615460026B046B1462088C0F3C50882
:10237000C8F14009206800EBC50020602068B0EB80
:10238000C50F02D26068401C6060606800EB557049
:1023900060604D451CD304F1180101EB08004A466A
:1023A000394602F099FA04F1180104F10800FFF728
:1023B00025FC4E4605E0B91904F10800FFF71EFCA4
:1023C000403606F14000A842F5D94FF0000800E081
:1023D0000026AA1BB91904F1180303EB080002F048
:1023E0007BFABDE8F08770B5034614460022002052
:1023F00015E011F822501D5431F82250C5F307267C
:10240000451C5E5551F82250C5F30746851C5E55A4
:1024100051F822502D0EC61C9D55521C001DA04285
:10242000E7D370BD2DE9FC4104460E460025002788
:102430002088C0F3C505382D40D2C5F138003FE0F3
:1024400081F6718722619D6D0C38E5FD44EABEA4DA
:10245000A9CFDE4B604BBBF670BCBFBEC67E9B28CF
:10246000FA27A1EA8530EFD4051D880439D0D4D9E4
:10247000E599DBE6F87CA21F6556ACC4442229F43A
:1024800097FF2A43A72394AB39A093FCC3595B65FC
:1024900092CC0C8F7DF4EFFFD15D84854F7EA86FC9
:1024A000E0E62CFE144301A3A111084E827E53F7EF
:1024B00035F23ABDBBD2D72A91D386EBC5F178006D
:1024C0000746082221466846FFF78DFF3A4608492D
:1024D0002046FFF742FF082269462046FFF73DFFEE
:1024E000102204F108013046FFF77DFFBDE8FC81B2
:1024F0006C00002010B50346002003E00C5C1C5467
:10250000441CE0B29042F9DB10BD30B5ABB00546DB
:102510000C46601EC2B2294617A8FFF7EBFF17A9A9
:102520002144481E10221B49FFF7E4FF01A8FFF7D2
:102530003FFB04F10F0217A901A8FFF70EFF27A91F
:1025400001A8FFF76FFF9DF89E00291901F8010C03
:102550002BB030BD30B591B005460C46601EC2B2FE
:10256000294601A8FFF7C6FF01A92144481E1022F1
:102570000849FFF7BFFF214601A8FFF7C6FF601E0D
:1025800001A9095C285C814202D1012011B030BD53
:102590000020FBE7AC00002008B50121202000F05E
:1025A000EFFD0420ADF8000010208DF8030003209B
:1025B0008DF8020069462A4800F026FB04212848CD
:1025C00000F0CFFB0121042000F0DAFD4FF4807011
:1025D000ADF8000010208DF8030003208DF80200F4
:1025E0006946204800F010FB4FF480711D4800F050
:1025F000B8FB08BD70B504460D46002610E04FF448
:102600008071184800F0AFFB1E2000F0F8F94FF47D
:102610008071144800F0A5FB642000F0F0F9761CEE
:10262000A642ECDB284600F0EAF970BD70B504461E
:102630000D4600260EE00421094800F094FB1E2000
:1026400000F0DDF90421064800F08BFB642000F067
:10265000D6F9761CA642EEDB284600F0D0F970BD14
:1026600000140140000801401FB5002240F225512E
:10267000364800F0C4FE4FF6FF70ADF80000482069
:102680008DF8030002208DF802006946304800F002
:10269000BBFA69462F4800F0B7FA69462E4800F0A9
:1026A000B3FA4FF48060ADF8000028208DF80300E5
:1026B00002208DF802006946254800F0A5FA0121A4
:1026C000084600F05DFD0A21002000F0B3FB4FF446
:1026D0008060029000208DF80C000C208DF80D0019
:1026E00001208DF80E0002A801F0CEFE28208DF802
:1026F000040001208DF805008DF806008DF8070014
:1027000001A800F0B8F90121080700F046FD0121F9
:10271000084601F057FF1FBD10B5FEF75CFAFFF742
:102720003BFF01F0A3FE4FF4A06000F09FF9FEF71D
:102730008BFCFEF7B8FCFEF725FC4FF4E13000F00F
:102740001EF800200549088010BD00000038014037
:1027500000080140000C014000100140C0000020B2
:10276000014600BF704700BF944A128802F0400241
:10277000002AF9D0C2B2914B1B1D1A80704710B5C8
:1027800086B00446012144F2040000F0F9FC4FF445
:102790000070ADF8140003208DF8160018208DF895
:1027A000170005A9864800F02FFA4FF48060ADF8B5
:1027B000140004208DF8170005A9814800F024FAC0
:1027C00025208DF8000003208DF801008DF802000F
:1027D00001208DF80300684600F04DF901940020B7
:1027E000ADF80800ADF80A00ADF80C00ADF8100027
:1027F0000C20ADF80E0001A9704800F068FD012220
:1028000040F225516D4800F0FAFD01216B4800F0BF
:10281000EAFD06B010BD10B540F22551674800F042
:10282000D3FE00285DD0654800F04EFEC4B2654876
:10283000008800F4604048B1B0F5804F19D0B0F581
:10284000C04F28D0B0F5004F3FD13DE05D48008833
:10285000C0F30C00C72803DD00205A49088010BDD2
:10286000FE2C05D15748008840F480405549088027
:102870002BE00A2C06D15348008840F400505149FF
:10288000088007E0FE2C05D04E480088C0F30C00FD
:102890004C49088019E0EF2C0FD14A480088801E6F
:1028A0004849088008460088C0F30C0008800846A4
:1028B000008840F400400880D1E742480088C0F317
:1028C0000C004049088000E0C9E700BF3D4800888F
:1028D000C0F30C003C490C543A480088401C39496C
:1028E000088000BFBBE710B504462146334800F01E
:1028F000E7FD00BF4021314800F050FE0128F9D12A
:102900001E2000F06DF810BD10B5044634B90D203E
:10291000FFF7E9FF0A20FFF7E6FF10BD012C09D100
:10292000FE20FFF7E0FF0A20FFF7DDFFEF20FFF7B3
:10293000DAFFF2E700BFF0E72DE9F04106460F4667
:102940001446002500BF0FE0715D1C4800F0B8FD83
:1029500000BF4021194800F021FE0128F9D11E20B6
:1029600000F03EF8681C85B2BD42EDDB3CB90D209D
:10297000FFF7B9FF0A20FFF7B6FFBDE8F081012C91
:1029800009D1FE20FFF7AFFF0A20FFF7ACFFEF20D1
:10299000FFF7A9FFF1E700BFEFE700B585B014220C
:1029A0000AA1684601F0DDFF012211216846FFF708
:1029B000C3FF00200349088005B000BD0038014076
:1029C00000080140C0000020D80000205379737433
:1029D000656D2053746172742E2E2E0A0000000063
:1029E000002106E00A2100BF0A00A1F1010399B20B
:1029F000FAD10200A0F1010398B2F3D1704700218F
:102A000007E042F6E06100BF0A00A1F1010399B2BC
:102A1000FAD10200A0F1010398B2F2D1704700BFD1
:102A20000100A0F1010290B2FAD170470948804735
:102A300009480047FEE7FEE7FEE7FEE7FEE7FEE7A0
:102A4000FEE7FEE7FEE7FEE704480549054A064BB8
:102A500070470000D70B0008310100080002002079
:102A60000008002000040020000400203149014338
:102A7000314A1160704770B5002100230F22C478DD
:102A800004B32D4C246804F4E064C4F5E064210A26
:102A9000C1F10403CA40447804FA03F18478144075
:102AA00021430901254C0678A155047804F01F053F
:102AB0000124AC4005786D11AD0005F1E025C5F8A5
:102AC000004109E0047804F01F050124AC401C4DCE
:102AD0000678761145F8264070BD1A4A0A4002432E
:102AE000154B1B1F1A60704739B1134A121D12682B
:102AF0000243114B1B1D1A6006E00F4A121D12689B
:102B000082430D4B1B1D1A607047042808D14FF0FB
:102B1000E021096941F004014FF0E022116107E072
:102B20004FF0E021096921F004014FF0E02211612A
:102B3000704700000000FA050CED00E000E400E042
:102B400080E100E080FFFF1F10B50446CC488442BE
:102B500008D10121042000F02DFB0021042000F009
:102B600029FB46E0C748844208D10121082000F033
:102B700021FB0021082000F01DFB3AE0C2488442FE
:102B800008D10121102000F015FB0021102000F0D9
:102B900011FB2EE0BD48844208D10121202000F025
:102BA00009FB0021202000F005FB22E0B848844208
:102BB00008D10121402000F0FDFA0021402000F062
:102BC000F9FA16E0B348844208D10121802000F0D0
:102BD000F1FA0021802000F0EDFA0AE0AE488442CC
:102BE00007D10121801500F0E5FA0021A01500F0C1
:102BF000E1FA10BD10B50121084600F0DBFA002112
:102C0000012000F0D7FA10BD2DE9F0410246002561
:102C10000026002000230024002791F803C00CF0B8
:102C20000F0591F803C00CF0100CBCF1000F03D09D
:102C300091F802C04CEA050591F800C0BCF1000F04
:102C400031D0146800202BE04FF0010C0CFA00F397
:102C5000B1F800C00CEA03069E4220D183004FF079
:102C60000F0C0CFA03F7BC4305FA03FC4CEA04040E
:102C700091F803C0BCF1280F06D14FF0010C0CFAFB
:102C800000FCC2F814C00AE091F803C0BCF1480F80
:102C900005D14FF0010C0CFA00FCC2F810C0401C2A
:102CA0000828D1D31460B1F800C0BCF1FF0F34DDA7
:102CB000546800202EE000F1080C4FF0010808FADB
:102CC0000CF3B1F800C00CEA03069E4221D1830048
:102CD0004FF00F0C0CFA03F7BC4305FA03FC4CEA67
:102CE000040491F803C0BCF1280F05D100F1080CD1
:102CF00008FA0CF8C2F8148091F803C0BCF1480F30
:102D000007D100F1080C4FF0010808FA0CF8C2F8DE
:102D10001080401C0828CED35460BDE8F0814FF6E7
:102D2000FF710180022181700421C1707047024649
:102D3000002093680B400BB1012000E00020704799
:102D40000146886880B2704702460020D3680B4075
:102D50000BB1012000E0002070470146C86880B236
:102D6000704701617047416170470AB1016100E03D
:102D700041617047C16070474FF480320A438261FD
:102D80008161826182698269704702460020434BFB
:102D900018684FF68073184040EA021008433F4B12
:102DA000186070473E49C8617047F0B50A46002375
:102DB00000240021002500F00046B6F1004F02D1AA
:102DC000364EF16901E0354E7168C0F3034583B2B8
:102DD00000F44016B6F5401F08D121F070612F4E67
:102DE000766826F070662D4F7E6012E000F4801643
:102DF000B6F5801F06D1032606FA05F4A14341F07B
:102E0000706106E0460D360103FA06F6B14341F063
:102E1000706122B1460D360103FA06F6314300F027
:102E20000046B6F1004F02D11C4EF16101E01B4E8D
:102E30007160F0BD30B500228B071C0F0F2303FA21
:102E400004F2164B08338C1053F824309343134C80
:102E500008348D1044F8253023468C1053F8243064
:102E60008C07240F00FA04F423430C4C08348D1013
:102E700044F8253030BD0A49DC3108607047000055
:102E800000080140000C0140001001400014014006
:102E900000180140001C01400020014000000140DA
:102EA00000002042DF48006840F00100DD49086072
:102EB00008464068DC490840DA494860084600682E
:102EC000DA490840D74908600846006820F48020A5
:102ED00008600846406820F4FE0048604FF41F0078
:102EE00088607047CF49096821F48031CD4A11606C
:102EF0001146096821F480211160B0F5803F03D0AC
:102F0000B0F5802F0ED106E0C649096841F4803142
:102F1000C44A116007E0C349096841F4A021C14ACD
:102F2000116000E000BF00BF704710B501460022ED
:102F3000002300204A11012A02D1BA4C236806E07E
:102F4000022A02D1B74C236A01E0B64C636A01F051
:102F50001F02012494401C400CB1012000E000201D
:102F600010BD38B5002000900024002500BF31209E
:102F7000FFF7DBFF05460098401C00900098B0F575
:102F8000A06F01D0002DF2D03120FFF7CEFF08B1A5
:102F9000012400E00024204638BD01460020A14A5B
:102FA000106820F0F80040EAC10010607047A049A6
:102FB00008607047024600209A4B586820F47C1045
:102FC00042EA01031843974B5860704798490866D6
:102FD000704701460020934A506820F003000843E0
:102FE000506070478F48406800F00C007047014601
:102FF00000208C4A506820F0F00008435060704771
:1030000001460020874A506820F4E0600843506081
:10301000704701460020834A506820F4605040EA1F
:10302000C1005060704729B17E4A527A02437D4BFD
:103030005A7204E07B4A527A82437A4B5A72704742
:103040007B49D8310860704701460020754A5068B6
:1030500020F440400843506070470021714A2032FC
:103060001170704A82F82010012802D004280AD179
:1030700004E001216B4A2032117005E00521694A04
:103080002032117000E000BF00BF7047694908603E
:1030900070476449096A0143624A11627047654991
:1030A00044390860704730B5002100220024002315
:1030B0005C4D6D6805F00C0121B1042905D008298B
:1030C00023D105E05C4D056022E05B4D05601FE00B
:1030D000544D6D6805F47012524D6D6805F48034DE
:1030E000022505EB92421CB9544D554305600BE097
:1030F0004C4D6D6805F400351DB1504D55430560CC
:1031000002E04D4D5543056002E04B4D056000BFA8
:1031100000BF444D6D6805F0F0010909484D6B5C36
:103120000568DD4045603F4D6D6805F4E061090AC2
:10313000434D6B5C4568DD4085603A4D6D6805F434
:103140006051C90A3E4D6B5C4568DD40C560354D38
:103150006D6805F44041890B3A4D6B5CC568B5FB61
:10316000F3F5056130BD29B12E4A526902432D4B5A
:103170005A6104E02B4A526982432A4B5A617047D4
:1031800029B1284A92690243264B9A6104E0254AF4
:1031900092698243234B9A61704729B1214AD269CF
:1031A0000243204BDA6104E01E4AD26982431D4B80
:1031B000DA61704729B11B4AD2680243194BDA60C1
:1031C00004E0184AD2688243164BDA60704729B18E
:1031D000144A12690243134B1A6104E0114A12693E
:1031E0008243104B1A61704712494039086070479A
:1031F0000F49C86470470B49C87170470948406A55
:1032000040F0807007494862704701460020054A37
:1032100092680A400AB1012000E00020704701498D
:1032200088727047001002400000FFF8FFFFF6FEB2
:10323000000042428004424200127A0000093D0030
:10324000C2000020D200002010B50446FB48844292
:1032500009D101218803FFF7ADFF00214FF4804021
:10326000FFF7A8FF32E0F648844209D10121480463
:10327000FFF7ADFF00214FF40030FFF7A8FF25E076
:10328000F048844209D101218804FFF7A0FF002102
:103290004FF48020FFF79BFF18E0EB48844209D1F0
:1032A0000121C804FFF793FF00214FF40020FFF72E
:1032B0008EFF0BE0E548844208D101210805FFF7A5
:1032C00086FF00214FF48010FFF781FF10BD2DE92C
:1032D000F04786B005460E460024A24600BFA14630
:1032E0000027B08900B100BF2F462C8A4CF6FF7032
:1032F0000440F08804432C82AC894EF6F31004405D
:10330000B08831890843718908430443AC81AC8A91
:103310004FF6FF400440B0890443AC8201A8FFF798
:10332000C2FEC648874202D1DDF810A001E0DDF8F8
:103330000CA0A88900F4004040B10AEBCA0000EBE1
:103340000A1031684900B0FBF1F807E00AEBCA0047
:1033500000EB0A1031688900B0FBF1F86420B8FB7B
:10336000F0F004012009642101FB1089A88900F410
:10337000004040B1322000EBC900B0FBF1F000F09A
:103380000700044308E0322000EB09106421B0FB81
:10339000F1F000F00F0004432C8106B0BDE8F08787
:1033A0004FF41651016000218180C18001810C2100
:1033B000418100218181704710B502460020108AAA
:1033C0004FF2FF0318400B884C8823438C8823431B
:1033D000CC8823431843108210BD00210180418016
:1033E0008180C180704721B1828942F4005282817C
:1033F00004E082894DF6FF731A4082817047F0B570
:103400000346002400260025002040F66A17B94232
:1034100000D100BF1846C1F3421401F01F06012776
:1034200007FA06F5012C01D10C3004E0022C01D181
:10343000103000E014301AB107682F43076002E033
:103440000768AF430760F0BD1AB1838A0B438382DC
:1034500002E0838A8B4383827047028A4FF6F073BF
:103460001A400282028A0A430282704782894FF21E
:10347000FF731A40828182890A438281704721B199
:10348000828942F00202828104E082894FF6FD7354
:103490001A4082817047028A4FF6DF731A40028217
:1034A000028A0A430282704721B1028A42F48042B2
:1034B000028204E0028A4BF6FF731A4002827047D0
:1034C000C1F308028280704701468888C0F3080073
:1034D0007047818941F0010181817047028BD2B22E
:1034E0000283028B42EA012202837047028B02F4BC
:1034F0007F420283028B0A430283704721B1828A92
:1035000042F02002828204E0828A4FF6DF731A4082
:103510008282704721B1828A42F01002828204E0E6
:10352000828A4FF6EF731A408282704721B1828AF5
:1035300042F00802828204E0828A4FF6F7731A4052
:103540008282704721B1828942F40042828103E085
:103550008289C2F30E028281704721B1828A42F4CD
:103560000062828204E0828A4FF2FF731A408282F4
:103570007047828A4FF6FB731A408282828A0A431E
:103580008282704721B1828A42F00202828204E084
:10359000828A4FF6FD731A408282704702460020ED
:1035A000B1F5007F00D100BF13880B400BB10120A3
:1035B00000E00020704701F40072B2F5007F00D1F6
:1035C00000BFCA430280704770B502460024002342
:1035D0000025002040F66A16B14200D100BFC1F3B9
:1035E000421501F01F03012606FA03F3012D02D153
:1035F0009689334006E0022D02D1168A334001E05D
:10360000968A33400C12012606FA04F416883440D8
:1036100013B10CB1012000E0002070BD10B50022F4
:10362000002340F66A14A14200D100BF0A1201240F
:103630009440A3B2DC43048010BD00000038014078
:103640000044004000480040004C00400050004052
:1036500010B50446FE48844208D10121C014FFF78A
:10366000A9FD0021E014FFF7A5FDC4E0B4F1804FEF
:1036700008D101210846FFF7AAFD00210120FFF72C
:10368000A6FDB8E0F348844208D101210220FFF7EB
:103690009EFD00210220FFF79AFDACE0EE48844237
:1036A00008D101210420FFF792FD00210420FFF73B
:1036B0008EFDA0E0E948844208D101210820FFF7EF
:1036C00086FD00210820FFF782FD94E0E448844253
:1036D00008D101211020FFF77AFD00211020FFF70B
:1036E00076FD88E0DF48844208D101212020FFF7E1
:1036F0006EFD00212020FFF76AFD7CE0DA4884425D
:1037000008D101214014FFF755FD00216014FFF797
:1037100051FD70E0D548844209D10121C804FFF76A
:1037200049FD00214FF40020FFF744FD63E0D0483D
:10373000844209D101210805FFF73CFD00214FF427
:103740008010FFF737FD56E0CA48844209D10121B5
:103750004805FFF72FFD00214FF40010FFF72AFD69
:1037600049E0C548844208D101214020FFF72FFDE0
:1037700000214020FFF72BFD3DE0C048844208D1E6
:1037800001218020FFF723FD00218020FFF71FFD8E
:1037900031E0BB48844208D101218015FFF717FDB5
:1037A0000021A015FFF713FD25E0B648844209D19A
:1037B00001210804FFF7FEFC00214FF48030FFF7E1
:1037C000F9FC18E0B048844209D101214804FFF710
:1037D000F1FC00214FF40030FFF7ECFC0BE0AB48AC
:1037E000844208D101218804FFF7E4FC00214FF452
:1037F0008020FFF7DFFC10BD00220288944B984226
:103800000ED0994B98420BD0B0F1804F08D0914B1D
:10381000984205D0904B984202D0904B984204D1E8
:103820004FF68F731A404B881A438D4B984207D03E
:103830008C4B984204D04FF6FF431A40CB881A4372
:1038400002808B8883850B880385814B98420BD03F
:10385000854B984208D08B4B984205D08A4B9842B2
:1038600002D08A4B984201D10B7A038601238382CE
:10387000704770B5002400220023058C4FF6FE76B9
:1038800035400584028C8388048B4FF68F752C405D
:10389000B51E2C400D882C43751E2A400D892A43E5
:1038A0004D882A436A4DA8420BD06F4DA84208D0DC
:1038B000744DA84205D0744DA84202D0734DA84261
:1038C00013D14FF6F7752A404D892A434FF6FB7501
:1038D0002A408D882A434FF6FF652B404FF6FF554F
:1038E0002B408D892B43CD892B4383800483CD8846
:1038F0008586028470BD70B5002400220023058CEB
:103900004FF6EF7635400584028C8388048B48F6A9
:10391000FF752C404FF6FF452C400D884FF6FF7683
:1039200006EA05252C434FF6DF752A400D8906EA85
:1039300005152A434D8806EA05152A43444DA84239
:1039400002D0494DA8421DD14FF67F752A404D89BE
:103950004FF6FF7606EA05152A434FF6BF752A4053
:103960008D8806EA05152A434FF6FF352B404FF2A6
:10397000FF752B408D8906EA85052B43CD8906EA24
:1039800085052B4383800483CD880587028470BD21
:1039900070B5002400220023058C4FF6FF663540E9
:1039A0000584028C8388848B4FF68F752C404FF6EC
:1039B000FC752C400D882C434FF6FF552A400D898D
:1039C0004FF6FF7606EA05252A434D8806EA0525C7
:1039D0002A431F4DA84202D0234DA8421DD14FF2C9
:1039E000FF752A404D894FF6FF7606EA05252A43E2
:1039F0004FF6FF352A408D8806EA05252A434EF604
:103A0000FF752B404DF6FF752B408D8906EA051595
:103A10002B43CD8906EA05152B4383808483CD880B
:103A20008587028470BD70B5002200230024058CB8
:103A30004EF6FF7635400584038C8488828B48F6E9
:103A4000FF752A404FF6FF452A400D8820E0000010
:103A5000002C01400004004000080040000C004021
:103A6000001000400014004000340140004C0140B0
:103A7000005001400054014000180040001C00406C
:103A80000020004000400140004401400048014047
:103A90004FF6FF7606EA05252A434DF6FF752B40C3
:103AA0000D8906EA05352B434D8806EA05352B437B
:103AB000FA4DA84202D0FA4DA84208D14BF6FF7544
:103AC0002C408D894FF6FF7606EA85152C438480BD
:103AD0008283CD88A0F84050038470BD828B4FF262
:103AE000FF331A408283828B4FF6FF7303EA012370
:103AF0001A4382837047F0B50C4615460022002118
:103B00000026078C4EF6FF7C07EA0C070784828BA1
:103B1000018C4FF6FF7707EA043640F6FF473A403C
:103B20004FF6FF7707EA05273A434FF6FF7707EA94
:103B300003373A43D94FB8420ED0D94FB8420BD0D1
:103B4000B0F1804F08D0D74FB84205D0D64FB84219
:103B500002D0D64FB84206D14DF6FF77394046F431
:103B60008057394305E047F6FF57394044F4805702
:103B7000394382830184F0BD828B4FF6F3731A4080
:103B80008283828B0A4382837047F0B50C461546C8
:103B9000002200210026078C4FF6FF6C07EA0C0775
:103BA0000784828B018C4FF6FF7707EA04264FF6D5
:103BB0000C773A404FF6FF7707EA03172F433A4353
:103BC000B64FB8420ED0B64FB8420BD0B0F1804FCE
:103BD00008D0B44FB84205D0B34FB84202D0B34F6B
:103BE000B84206D14FF6FF57394046F48077394343
:103BF00005E04FF2FF57394044F480773943828320
:103C00000184F0BD028B4FF2FF331A400283028B16
:103C10004FF6FF7303EA01231A4302837047F0B59E
:103C20000C461546002200210026078C4FF6EF7C3B
:103C300007EA0C070784028B018C4FF6FF7707EA2F
:103C4000041640F6FF473A404FF6FF7707EA03377E
:103C50003A434FF6FF7707EA05273A438F4FB842BA
:103C60000ED08F4FB8420BD0B0F1804F08D08D4F9F
:103C7000B84205D08C4FB84202D08C4FB84206D122
:103C80004FF6DF77394046F01007394305E04FF62D
:103C90005F77394044F01007394302830184F0BD57
:103CA000028B4FF6F3731A400283028B0A4302839E
:103CB0007047F0B50C46154600220021068C4FF6E1
:103CC000FE773E400684028B018C4FF60C76324024
:103CD0007E1C06EA03162E433243704EB0420ED0CD
:103CE0006F4EB0420BD0B0F1804F08D06D4EB04255
:103CF00005D06D4EB04202D06C4EB04206D14FF6A8
:103D0000FD76314044F00106314305E04FF6F5768B
:103D1000314044F00106314302830184F0BD70B5A7
:103D200005460C465D4885420ED05D4885420BD065
:103D3000B5F1804F08D05B48854205D05A4885428E
:103D400002D05A48854200D100E000BF208850B917
:103D50002389A28861882846FFF7ABFFE1882846BF
:103D6000FFF79EFF25E0208804280AD12389A28836
:103D700061882846FFF753FFE1882846FFF742FF96
:103D800017E0208808280AD12389A288618828465C
:103D9000FFF7FBFEE1882846FFF7EEFE09E02389E6
:103DA000A28861882846FFF7A6FEE1882846FFF72B
:103DB00095FE70BD2DE9F04105460C460026012711
:103DC000608808B9022600E00026A088012801D1F9
:103DD000022700E001272088A0B92389A2886188F2
:103DE0002846FFF766FFE1882846FFF759FF238939
:103DF0003A4631462846FFF712FFE1882846FFF78A
:103E000001FF13E02389A28861882846FFF707FF96
:103E1000E1882846FFF7F6FE23893A4631462846D0
:103E2000FFF747FFE1882846FFF73AFFBDE8F0813A
:103E30000A884B881A438B881A43CB881A430B890C
:103E40001A434B891A438B891A43A0F844207047C0
:103E50004FF6FF71818000210180C1804180017295
:103E600070470021018041808180C18001814181B2
:103E70008181C181704700210180418001218180C1
:103E80000021C18001817047002101804180818033
:103E9000C18001814181818170470000002C014077
:103EA000003401400004004000080040000C0040C5
:103EB00021B1028842F00102028004E002884FF63C
:103EC000FE731A400280704731B1B0F8442042F4CA
:103ED0000042A0F8442005E0B0F84420C2F30E02EE
:103EE000A0F8442070471AB183890B43838102E014
:103EF00083898B43838170478182704741EA020343
:103F0000A0F8483070471AB183890B43838102E0DF
:103F100083898B438381704701894FF6F872114082
:103F2000018170470A46002101894FF68F731940BD
:103F300011430181704730B504460D46294620469D
:103F4000FFF7F0FF208940F00700208130BD2DE908
:103F5000F04104460D4616461F46602D06D13B46ED
:103F6000012231462046FFF75AFE05E03B4601227A
:103F700031462046FFF79DFE29462046FFF7D2FF37
:103F8000208940F007002081BDE8F08130B50C4663
:103F900000210189C9B24FF6FF7505EA03251543D3
:103FA00025432943018130BD2DE9F04105460E46E8
:103FB00017469846002443463A4631462846FFF7BE
:103FC000E5FF2C894FF6F870044044F007044FF6E3
:103FD0008F70044044F070042C81BDE8F081F0B58E
:103FE00004460D4616461F463B46324629462046A5
:103FF000FFF7CCFF208940F480402081F0BD01858F
:10400000828270470A46002101884FF68F7319405B
:10401000114301807047F0B50C4615461E4600213D
:10402000002200230189028B038C4FF6F877394078
:1040300021434FF6FC473A4040F201173A434FF60E
:10404000DD773B404FF6FF7707EA06172F433B43E8
:10405000018102830384F0BD0A460021018B4FF6E3
:104060008F7319401143018370470A460021018B69
:1040700048F6FF7319404FF6FF7303EA0223194312
:10408000018370470A460021818B4FF68F731940D8
:104090001143818370470A460021818B48F6FF73E4
:1040A00019404FF6FF7303EA0223194381837047D7
:1040B00021B1028842F08002028004E002884FF6BB
:1040C0007F731A400280704721B1828842F0040257
:1040D000828004E082884FF6FB731A40828070472A
:1040E00021B1828842F00802828004E082884FF683
:1040F000F7731A408280704721B1828842F0010232
:10410000828004E082884FF6FE731A4082807047F6
:104110000A460021018B4FF6F773194011430183C2
:1041200070470A460021018B4FF2FF7319404FF68A
:10413000FF7303EA02231943018370470A460021F3
:10414000818B4FF6F77319401143818370470A46FC
:104150000021818B4FF2FF7319404FF6FF7303EA82
:1041600002231943818370470A460021018B4FF6D1
:10417000FB7319401143018370470A460021018BEC
:104180004FF6FF3319404FF6FF7303EA022319433A
:10419000018370470A460021818B4FF6FB7319405B
:1041A0001143818370470A460021818B4FF6FF330C
:1041B00019404FF6FF7303EA0223194381837047C6
:1041C0000A460021018B4FF67F731940114301838A
:1041D00070470A460021018BC1F30E014FF6FF73B1
:1041E00003EA02231943018370470A460021818BA9
:1041F0004FF67F7319401143818370470A460021AF
:10420000818BC1F30E014FF6FF7303EA02231943BA
:10421000818370470A460021018C4FF6FD731940D7
:104220001143018470470A460021018C4FF6F77351
:1042300019401143018470470A460021018C4FF652
:10424000DF7319404FF6FF7303EA02131943018429
:1042500070470A460021018C4FF67F7319404FF6D4
:10426000FF7303EA02131943018470470A460021D1
:10427000018C4FF6FF5319404FF6FF7303EA0223F8
:104280001943018470470A460021018C4FF2FF73E5
:1042900019404FF6FF7303EA022319430184704764
:1042A0000A460021018C4DF6FF7319404FF6FF734B
:1042B00003EA023319430184704730B50023012417
:1042C0008C40A3B2048C9C430484048C02FA01F554
:1042D000ADB22C43048430BD30B5002304248C409F
:1042E000A3B2048C9C430484048C02FA01F5ADB2A1
:1042F0002C43048430BD70B50346002000241846CA
:10430000183001258D40ACB21D8CA5431D8409B128
:10431000082909D100EB6100056825F070050560EA
:104320000568154305600EE00D1FC5F34E052844D2
:10433000056825F4E045056005684FF6FF7606EA56
:1043400002263543056070BD21B1028842F00202A9
:10435000028004E002884FF6FD731A400280704725
:1043600021B1028842F00402028004E002884FF684
:10437000FB731A400280704721B1828842F08002AC
:10438000828004E082884FF67F731A4082807047F3
:1043900002884FF6F7731A40028002880A430280AF
:1043A000704782884FF68F731A40828082880A4352
:1043B0008280704702894FF6F8731A4002810289A1
:1043C0000A430281704702894FF67F731A400281C7
:1043D00002890A4302817047818470478185704752
:1043E000818670470187704781877047A0F8401029
:1043F000704702884FF6FF431A40028002880A4342
:10440000028070470146888E70470146088F7047CA
:104410000146888F70470146B1F840007047014659
:10442000888C70470146088D704702460020138A29
:104430000B400BB1012000E000207047CA4302820C
:10444000704730B50246002000230024158A05EA93
:104450000103958905EA010413B10CB1012000E0C4
:10446000002030BDCA43028270470000002044494A
:104470000860091D0860091D0860091D08604148A1
:104480003F4914310860704700213D498279002A74
:104490003AD00A46126803689A430B461A600A1D0E
:1044A000126803689A430B1D1A60027911440A6866
:1044B00003681A430A60324A0832126803689A4352
:1044C0002F4B08331A601A1D126803689A432C4B4D
:1044D0000C331A604279102A0ED11A1F1268036831
:1044E0001A43274B08331A601A1D126803681A43CF
:1044F000234B0C331A600DE02149427911440A68BC
:1045000003681A430A6005E0027911440A680368E7
:104510009A430A6070470021016001710C214171CA
:104520000021817170471649103109680143144A0E
:1045300010321160704701460020114A143212688F
:104540000A400AB1012000E0002070470C491431F4
:1045500008607047014600200022094B1B6803EAEF
:104560000102074B14331B680B4013B10AB1012041
:1045700000E00020704702491431086070470000D5
:1045800000040140FFFF0F0010B501210807FEF7EE
:104590001EFE00214FF08050FEF719FE10BD2A4983
:1045A0000862704728490861704701460020274A81
:1045B000106820F0E0000843106070472249A031E5
:1045C0000860704710B502460020204B186820F0A4
:1045D0000300104318601E4B1B6843F004031C4C7F
:1045E0002360012901D130BF00E020BF184B1B68B8
:1045F00023F00403164C236010BD1448006840F0FB
:104600000400124908600846006840F00200086093
:104610000F48006840F004000D49086000BF00BF6B
:1046200030BF704701460020084A52680A400AB16C
:10463000012000E0002070470449096841EA800138
:10464000024A11607047000000000E4200700040F6
:1046500010ED00E0704700000FB41CB5074B06AA30
:104660007B4469460090059800F00FFA00206946E7
:1046700000F01EFA1CBC5DF814FB00004D040000A5
:1046800070B5044685690068C10601D5302600E092
:104690002026C00707D070BDD4E9012130469047DD
:1046A000206A401C20626D1EF6D570BD70B50446B0
:1046B00085690078C00707D170BDD4E901212020A9
:1046C0009047206A401C20626D1EF6D570BD000028
:1046D0002DE9F0410646002410687529314616A5DB
:1046E00010D0AFF30080002802DA404213A507E0A3
:1046F00031688A0701D512A502E0490704D511A542
:10470000012401E0AFF3008000210A2206F1240712
:1047100009E0B0FBF2FCB0FBF2F302FB1C0030300E
:1047200078541846491C0028F3D123462A463046BF
:10473000BDE8F04100F04BB9000000002D00000082
:104740002B0000002000000070B504460D462146F5
:104750001068AFF300802188090502D50F4A7A441A
:1047600002E00E4A7A440E32002104F1240305E0EF
:1047700000F00F060009965D5E54491C0028F7D131
:1047800020780023000704D5702D02D009B1022340
:1047900011322046BDE8704000F019B9C403000092
:1047A0002DE9F05F894604464FF0000ADFF824B196
:1047B000FB44C0F820A02046E168884700287DD04F
:1047C000252806D0D4E901219047206A401C2062A8
:1047D000F1E700255F462046E16888472028064625
:1047E00007DB312E05D2B81910F8200C08B10543AB
:1047F000F1E7A80701D525F00405C4F81CA000279F
:10480000C4F818A02A2E09D0304600F085F938B334
:1048100004EB8708303EC8F8186019E059F8041B0B
:10482000204604EB87029161E1688847012F064624
:1048300018D1E069002820DA25F020051DE0D8F81D
:10484000180000EB800006EB40003038C8F8180074
:104850002046E1688847064600F05EF90028EED160
:10486000012F0AD02E2E08D12046E16888477F1CF0
:104870000646022F45F02005C4DBA069002803DAB4
:10488000404245F00105A061E80701D025F0100580
:10489000A6B1A6F14100192802D8203645F40065DA
:1048A0004A463146204625604D46FBF77BFC60B109
:1048B000012807D0ED1D25F0070000E007E000F11A
:1048C000080978E705F1040975E730467AE7206AB8
:1048D000BDE8F09F9A030000032A40F2308010F0F8
:1048E000030C00F0158011F8013BBCF1020F62448B
:1048F00098BF11F801CB00F8013B38BF11F8013B1C
:10490000A2F1040298BF00F801CB38BF00F8013BC8
:1049100011F0030300F02580083AC0F0088051F838
:10492000043B083A51F804CBA0E80810F5E7121D43
:104930005CBF51F8043B40F8043BAFF30080D20762
:1049400024BF11F8013B11F801CB48BF11F8012B2E
:1049500024BF00F8013B00F801CB48BF00F8012B51
:10496000704710B5203AC0F00B80B1E81850203ADB
:10497000A0E81850B1E81850A0E81850BFF4F5AFFF
:104980005FEA027C24BFB1E81850A0E8185044BF89
:1049900018C918C0BDE810405FEA827C24BF51F8F6
:1049A000043B40F8043B08BF7047D20728BF31F8EA
:1049B000023B48BF11F8012B28BF20F8023B48BF3B
:1049C00000F8012B704770477047704770472DE91A
:1049D000F0470D4699469246044600F124080168C6
:1049E000880604D5E06921F01001216000E0012073
:1049F000A84201DD471B00E00027A1697A1902EBFC
:104A00000900081AA0612078C00602D42046FFF7EA
:104A100037FE002608E0D4E901211AF80600904785
:104A2000206A401C761C20624E45F4DB2078C006CC
:104A30000AD52046FFF724FE06E0D4E90121302004
:104A40009047206A401C2062381EA7F10107F4DC61
:104A500007E0D4E9012118F805009047206A401CBE
:104A60002062281EA5F10105F3DC2046FFF71EFE9B
:104A70002078000602D50220BDE8F0870120FBE780
:104A800001694A1C02610878704700B58FB0CDE912
:104A900001310021059105497944CDE90310114602
:104AA0006846FFF77DFE0FB000BD0000E5FFFFFF89
:104AB0000A6802F8010B0A607047754600F028F892
:104AC000AE4605006946534620F00700854618B0FB
:104AD00020B5FDF7B9FFBDE820404FF000064FF0CC
:104AE00000074FF000084FF0000B21F00701AC4623
:104AF000ACE8C009ACE8C009ACE8C009ACE8C00942
:104B00008D4670470446AFF300802046FBF75FFBFD
:104B100000487047A001002030380A2801D2012047
:104B200070470020704730313233343536373839EA
:104B300041424344454640305800303132333435E9
:104B40003637383961626364656640307800040046
:104B5000000800000000000000020001000010003A
:104B6000804B000800000020D80000006C01000805
:104B7000584C0008D80000202807000088010008D1
:104B80000000000000000000000000000000000025
:104B90000000000000000000000000000000000015
:104BA0000000000000000000000000000000000005
:104BB0000000000000A24A04000000000000000005
:104BC0000102030406070809006400640000640091
:104BD00014141414141414001400000000006400D1
:104BE000C80032000000000000000000800000004B
:104BF00000000000000000000000000000000000B5
:104C000000000000000000000000000000000000A4
:104C10000000000000000000000000000000000094
:104C2000000000000000000000000000E7038B22ED
:104C3000F875002D58FAEC2CD37A7AFF00000000AA
:104C40000000000000000102030401020304060743
:084C5000080902040608000037
:0400000508000131BD
:00000001FF
